S0160000455345353136204D41494E2046572E7372656393
S214012000E0750020A9F801008DF801008DF80100A7
S21401201000000000000000000000000000000000BA
S21401202000000000000000000000000075650100CF
S21401203000000000000000005166010095660100E6
S2140120408DF801008DF801008DF8010085D9010099
S21401205005D601008DF801008DF801008DF801000C
S2140120608DF80100ADDD0100BDDD0100CDDD010013
S214012070DDDD0100EDDD0100FDDD01005DF80100A3
S2140120806DF801007DF801000950010019500100AA
S2140120902950010000000000000000008DF801003A
S2140120A08DF801008DF801008DF801008DF8010012
S2140120B00000000010B5064C2378002B07D1054B15
S2140120C0002B02D0044800E000BF0123237010BD9E
S2140120D09802002000000000A4B00200084B10B5D2
S2140120E0002B03D00749084800E000BF07480368F3
S2140120F0002B00D110BD064B002BFBD09847F9E70B
S214012100000000009C020020A4B00200A4B002005F
S2140121100000000001680722CB691A42FCD1704713
S21401212070B5040006683268458B838BED1AADB234
S214012130838B013B9BB2838313011DD5C37A002B8E
S21401214003D0838B9BB2012B10D0A38B9BB2002BA9
S21401215002D1A37A002B1CD12000124B9847236A88
S2140121605D192823F35CDBB22B7070BD7268802387
S214012170DB0213437360E8E7C37A002BE5D0838B59
S2140121809BB2002BE1D172688023DB02134373609C
S214012190DBE72000034B98477268C0239B0213437A
S2140121A07360D9E71521010070B5040005686B8BD3
S2140121B05B0703D51E222523C25470BD468B838B35
S2140121C0F61AB6B2838B013B9BB28383044B9847C6
S2140121D0236A9E193378DBB22822AB54EDE7C0465A
S2140121E01521010070B505000C0006684B7A002B1E
S2140121F01AD17368134A1340736063682B6263884D
S214012200AB8300222423EA5405320133EA54223BED
S214012210B375237A002B0BD123885B00627A920375
S21401222013437362002070BD897A074B9847E0E735
S21401223023885B00627A92031343802212021343BF
S2140122407362EFE7FFFFFBFF854F0100F8B505005E
S2140122500C0006684B6803624B88838301222423A3
S214012260C25404320133C25437683F01FF0F4B7A20
S214012270002B17D1002F02D06388012B16D073686C
S214012280204A13407360237A002B15D10323B375BC
S21401229023885B00627A920313430122134373621D
S2140122A00020F8BD897A184B9847E3E772688023C7
S2140122B0DB0213437360E6E723885B00627A9203CE
S2140122C01343802212021343736228000F4B984770
S2140122D073680C4A134073600028E2D128000C4B47
S2140122E098470028DDD10323B37523881B0A78227B
S2140122F013435B00627A920301210A43134373621C
S214012300CFE7C046FFFFFBFF854F0100594F010095
S214012310294F0100931C9B00C3185960037E0121BD
S21401232091400B43DBB203767047000010B5838BF8
S2140123309BB20522002B01D0100010BD0133837221
S214012340C372024B98470200F6E7C0464D220100D1
S21401235010B5838B9BB20522002B01D0100010BD57
S21401236001338372C372024B98470200F6E7C046F8
S214012370E521010070B58000754BC45825682B68AF
S2140123801B01DA0F637E267E1E40638B9BB2002BF9
S21401239003D1A38B9BB2002B23D1638B9BB2002B63
S2140123A008D0A38B9BB2002B04D12533E35C052B0D
S2140123B000D16DE0638B9BB2002B24D0A38B9BB224
S2140123C0002B20D06B8B9B0600D581E0002A04D021
S2140123D0A38B9BB2012B00D17AE041222523E25444
S2140123E011E02B7EDB0707D501232B766B8B9B0732
S2140123F02ED541222523E254A38B9BB2638325234A
S214012400E35C052B38D0638B9BB2002B07D0A38BE4
S2140124109BB2002B03D12533E35C052B64D0252327
S214012420E35C052B13D02523E35C002B0FD003239D
S2140124302B7500236383A3832533E35C412B03D0F1
S214012440A37A002B00D075E0730700D57BE070BD42
S2140124506B8B5B07D0D518222523E2540023A38378
S214012460A37A002BC8D020003A4B98476A68C0234D
S2140124709B0213436B60BFE71F33E35C002B03D063
S2140124802000354B9847BEE72000344B9847BAE703
S2140124901F33E35C002B00D08CE703332B7500233E
S2140124A0638325330022E254A37A002B07D101234C
S2140124B02B76F307A7D5E36820009847A3E720000B
S2140124C0244B98476A68C0239B0213436B60F0E76E
S2140124D02423E35C002B03D12000204B984792E78E
S2140124E020001D4B98478EE71F33E35C012B96D1E6
S2140124F02B7E9B0701D502232B7603232B75002306
S214012500638325330022E254B30703D52423E35C17
S214012510012B0BD0F30700D481E72423E35C002BC7
S21401252000D07CE7E3682000984778E7236920001D
S214012530984774E72000074B98476A68E023DB0258
S21401254013436B6080E76369200098477FE7C046C6
S214012550545500201521010021210100A921010067
S214012560BFF34F8F024A034BDA60BFF34F8FFEE78C
S2140125700400FA0500ED00E0F8B506000F00064D70
S2140125801B23064A0F212800054CA0472A003900C4
S2140125903000A0470020F8BDC00200204C790200A0
S2140125A0A5640200F0B587B0070002912C4B98474E
S2140125B00F2502AB9C46654429002A4B98472B7889
S2140125C0002B3DD0284D062200212800274B984796
S2140125D0234B98472900264B98470023E85E254E53
S2140125E0B047254C20600223E85EB04760600423B4
S2140125F0E85EB047051CA060204E2068B0470390F7
S214012600281CB04701906068B0470090039B1C4AA5
S214012610029938001B4CA04704AC174E174D306882
S214012620A84720807068A8476080B068A847A08047
S2140126302000154B9847012808D0002007B0F0BDB0
S214012640124A029938000F4B9847E5E73800104BBD
S2140126509847381815220F490F4B9847EDE7C046A3
S214012660E134010035340100D00200204B62020043
S21401267059340100D5320100B4020020F1470200AE
S21401268070760200A5640200594B010094760200A0
S21401269003660200A87602001562020010B5022049
S2140126A0014B9847002010BD2D4B0100F0B589B0B5
S2140126B002900391150007AA012128001E4CA0478D
S2140126C0070006AA02212800A047060005AA032142
S2140126D001952800A047050004AA04210198A047F7
S2140126E00023079ABB54069AB354059AAB5401903B
S2140126F0049943543800114FB847C4B23000B84764
S21401270006002800B84705000198B8470F2C0DD8D9
S2140127100023029A1370C3B2EAB2F1B22000084C49
S214012720A047084B9847002009B0F0BD064A039918
S2140127300298064B9847F6E7CD51010099610200D1
S214012740553601008D360100F4760200A5640200BC
S21401275070B590B004000D00214B98470023002867
S21401276002D1180010B070BD012168461D4B984774
S21401277001230028F5D16B461B7803221A409B08DB
S214012780D808800007210B40C018022A15D0012363
S214012790032AE6D1C117043213000B401B18DB10C5
S2140127A09B00490F40181040401A1B180E4A29007A
S2140127B020000E4CA0470123D3E7C6170B00334079
S2140127C01B18DB109A00760F83190B409B1BD3183E
S2140127D0074A29002000054CA0470123C1E7C0464F
S2140127E069350100B9350100DC760200A5640200F6
S2140127F0C076020030B583B004000D006B46981D0C
S214012800002303806421124B984700280ED0030052
S214012810104A29002000104DA8476B46981D0F4B03
S214012820984701280BD0002003B030BD6B46063315
S2140128301B880B4A29002000074DA847EDE720001A
S214012840084B984720181A220749084B9847EAE789
S214012850D12D01002C760200A5640200754B010003
S21401286040760200036602005476020015620200FA
S21401287030B587B004000D0001A8002303700133B2
S2140128804370013383700133C37001330371013325
S2140128904371013383710133C37101330372013311
S2140128A04372F6338372064B9847012802D0002004
S2140128B007B030BD034A29002000034B9847F6E7CE
S2140128C0914B010014770200A5640200F0B5C646DC
S2140128D000B582B05A485B4CA0475B48A0475B48AE
S2140128E0A0475B48A0475B48A0475B48A0475B48BA
S2140128F0A0475B48A0475B485B4B984700245B4F6B
S214012900594B984627E09730594B984723E059484A
S214012910C0470024584B1C70584B1C70584D312230
S21401292058492800584B98473123EC54574C584E79
S214012930822221005348B047050000228123E25439
S2140129402000494B9847002DF2D1322200214D48F4
S214012950504B9847002401A8B847431CD3D001AB7D
S2140129601B780A2BD3D00D2BD1D0434A1278002ADC
S2140129703FD0424A1278032A13D8511CC9B23F48A5
S2140129800170454883540129E5D944494248444BDE
S214012990984700280BD10023374A1370374A137023
S2140129A0D9E70023344A1370344A1370D3E7354C01
S2140129B01B223C4920003C4B984720002A4B984755
S2140129C0322200212000334B984731222C49200027
S2140129D02D4B98472000354B98473124302803D893
S2140129E02748324B98470400E4B226481E4B9847C6
S2140129F0D1E7082B0FD07F2B0DD01B2B19D0312CF4
S214012A0003D8204A13550134E4B201A800234370C9
S214012A10154B98479FE7264B1B6800936846124B59
S214012A209847002C97D0013CE4B20022154B1A556A
S214012A3091E70122104B1A700022104B1A708AE798
S214012A409479020071500100647902003C79020019
S214012A50A479020084790200747902005479020094
S214012A60B4790200EC7802008D8E0100118F01000E
S214012A70458001009CAD0200D6020020D70200204E
S214012A8010030020DC02002033660200440300200D
S214012A90B55001004B620200D802002030790200D6
S214012AA04D650200347902000965020003660200E2
S214012AB02876020080B588B000AF7860424B1800D7
S214012AC0424B9847002214210220414B98470200AE
S214012AD0404B1A600022032102203D4B984702001A
S214012AE03D4B1A603B4B1B68002B03D03A4B1B68CF
S214012AF0002B03D1394B1800344B9847384B002232
S214012B001A70384B98470300FB61354B1B78012B35
S214012B101DD0022B35D0002B2FD12E4B1B6808223F
S214012B20B91800221800304B98470300012B2AD110
S214012B302E4B190001202E4B98470823FB1818002E
S214012B402C4B9847264B01221A70C0461BE02A4B95
S214012B509847031E19D0294B984703001800284BA5
S214012B6098470300012B04D0264B19000120204B67
S214012B7098471B4B00221A7007E0194B00221A7067
S214012B8004E0C04602E0C04600E0C046154B984748
S214012B900200FB69D21A96235B009A420FD9114BA9
S214012BA098470300FB61184A184B82211800184BFE
S214012BB09847154A154B82211800164B984728202E
S214012BC0154B9847A1E7C046C47902008D8E0100D7
S214012BD07D6A0100C8030020CC030020E4790200CE
S214012BE0E0410020817D010055720100107A02004B
S214012BF03D8F0100153B0100513B0100653B010083
S214012C00914B0100387A020054040020D0030020C2
S214012C10A5250100F52701004580010090B585B086
S214012C2000AF7860064B1868796800230A22054CC5
S214012C30A0470300FB60FB681800BD4605B090BDC9
S214012C40C8030020B96B010000B583B000230193CF
S214012C50064B186801A9064B9847019B002B03D029
S214012C6080225205034B1A6003B000BDE8410020E4
S214012C704572010004ED00E000B583B00023019326
S214012C80064B186801A9064B9847019B002B03D0F9
S214012C9080225205034B1A6003B000BDE8410020B4
S214012CA04572010004ED00E030B591B08023DB05EC
S214012CB0009300230193FF2269460A8100228B724A
S214012CC0CB72962189010891012124206C4621545A
S214012CD00130215425316354013163540A9305317F
S214012CE063540131635405932382E3762276227777
S214012CF062761323A376627780235B030393244BC8
S214012D000C93244B0D9301235B420E930F93224D9C
S214012D10224C6A4622492800A0470028F9D11E4DB8
S214012D202C6820001F4B98471F2318401E3B8340EA
S214012D301D4A13602A68D369002BFCD1236802223E
S214012D4013432360144C002218492000184DA8474D
S214012D50012218492000A8473122A35C03210B4316
S214012D60A3540120144B9847144C206003220021E1
S214012D700120134B9847134B18602368002B03D090
S214012D80002801D011B030BD0F48104B9847F9E725
S214012D900300220003002300F041002001E50100AA
S214012DA0001C00427DDD010000E100E0492C01002D
S214012DB0D1E80100792C0100E16E0100EC41002010
S214012DC07D6A0100E8410020687A02008D8E0100CC
S214012DD070B506000D001F4B1868962149001E4B62
S214012DE0984701282DD11D4955230B7001221C48F7
S214012DF01C4B98470024002808D0164B186800235F
S214012E0000220021184DA847200070BD174B1868F6
S214012E102900114B9847012816D10222144910485F
S214012E20144B9847114B186829000B4B98470128FB
S214012E300DD10F490A7812024B789B183380002473
S214012E40DBE71D246442D8E703246442D5E7032464
S214012E506442D2E7EC41002061750100E6410020A2
S214012E60F0410020E9E80100B96B0100E8410020CB
S214012E70E441002009E9010010B582B00024019464
S214012E80074B186801A9074B9847074B1C70019B15
S214012E90002B03D080225205044B1A6002B010BDED
S214012EA050420020457201008604002004ED00E037
S214012EB010B582B000240194074B186801A9074B8E
S214012EC09847074B1C70019B002B03D080225205AC
S214012ED0044B1A6002B010BD50420020457201003A
S214012EE08604002004ED00E010B582B000240194B1
S214012EF0074B186801A9074B9847074B1C70019BA5
S214012F00002B03D080225205044B1A6002B010BD7C
S214012F1050420020457201008604002004ED00E0C6
S214012F2070B50C4C00220C4920000C4DA847637E5E
S214012F300122134363760A492000A847637E0222D2
S214012F401343637607492000A847637E0422134390
S214012F50637670BD28420020792E010015230100FA
S214012F60B12E0100E92E010070B58EB001AB6422CE
S214012F700192334A0292002203921A731A76802132
S214012F808903059101214942998225315A540B92B0
S214012F9008315A5401315A5401315A54D7321A86DB
S214012FA0284A0892284A0992FA229200DA820324D1
S214012FB0264D274E01AA27492800B047002806D0EB
S214012FC02248254B9847013CE4B2002CF2D11F4B16
S214012FD01C680722E3691A42FCD1236802221343C4
S214012FE023601A4D28681D4B98471F2318401E3B27
S214012FF083401B4A1360E88800231021628B0A4233
S21401300004D101338342F9D310236383154B9847C8
S2140130100120154B9847154C206003220021012002
S214013020134B9847134B18602368002B04D00023DA
S214013030002802D1063300E0062318000EB070BD4A
S214013040480D000002000800020009002842002086
S214013050B94B010000080042B14E01007DDD0100C0
S21401306000E100E0212F0100E16E01002442002072
S2140130707D6A01005042002010B5002812D0436836
S214013080002B12D00A4902780A804B60C3894B8014
S2140130900848094B98470023002801D1180010BDA5
S2140130A0063BFBE708235B42F8E708235B42F5E7AC
S2140130B054420020284200205123010010B5002868
S2140130C013D04368002B13D00B4903780B80836819
S2140130D04B6083894B800948094B98470023002899
S2140130E001D1180010BD063BFBE708235B42F8E759
S2140130F008235B42F5E7C0465442002028420020E0
S2140131002D23010010B5074B18680023002200216B
S214013110054CA0470023012801D1180010BD143B1F
S214013120FBE7C04624420020B96B010010B5010040
S214013130054B1868054B98470023012801D1180054
S21401314010BD1D3BFBE7C04624420020617501000F
S21401315070B504000D0096204000104B98470028DB
S21401316000D070BD0E4B1E6820000E4B98470028FD
S21401317005D1290030000C4B9847012802D00B4B93
S2140131809847EEE70A4B1B78002B03D00022084B2A
S2140131901A70F4E7054B9847E3E7C0462D31010066
S2140131A050420020793001006175010005310100AF
S2140131B086040020F8B504000E0015009620400095
S2140131C01A4B9847002800D0F8BD194B1F682000FD
S2140131D0184B9847002805D129003800164B984708
S2140131E0012802D0154B9847EEE7154B1B78002BAC
S2140131F003D00022124B1A70F4E73000114B9847A7
S2140132002000114B98470028ECD1290038000A4BC2
S21401321098470128E6D10A4B1B78002B03D00022E1
S214013220074B1A70DEE7054B9847CDE72D310100B5
S214013230504200207930010061750100053101001E
S2140132408604002045800100BD30010010B582B023
S2140132506846C41DC17107486A21017044608260D6
S2140132600122C281838163320021034B984702B059
S21401327010BDC046A0420020B531010070B50E0059
S21401328011001D00094C1A002000094B9847013C0B
S214013290267008486A23037044600135C5810023FF
S2140132A083816421044B984770BDC046614200206B
S2140132B015620200A04200205131010070B58568F8
S2140132C044682800A04770BD70B58568046828006A
S2140132D0A04770BD10B5044B98470449044B984766
S2140132E00449054B984710BD31480200000074425E
S2140132F0B145020000007A442143020070B582B055
S21401330004000D00012301AA10210A4EB04700282F
S21401331001D002B070BD01AA032129408B001178AB
S2140133200C30814319431170012310212000024CF7
S214013330A047EEE7BD320100C932010070B582B088
S21401334004000D00012301AA1021094EB0470028F0
S21401335001D002B070BD01AA2D0113780F211940CA
S21401336029431170012310212000024CA047F0E7E9
S214013370BD320100C932010070B582B004000D00F3
S214013380012301AA11210A4EB047002801D002B03C
S21401339070BD01AA072129404B0011780E308143E8
S2140133A019431170012311212000024CA047EEE7BA
S2140133B0BD320100C932010070B582B004000D00B3
S2140133C0012301AA1121094EB047002801D002B0FD
S2140133D070BD01AA2D0113780F21194029431170E0
S2140133E0012311212000024CA047F0E7BD32010065
S2140133F0C932010070B582B004000D00012301AA94
S21401340012210A4EB047002801D002B070BD01AAB1
S214013410012129408B0111784030814319431170F5
S214013420012312212000024CA047EEE7BD32010025
S214013430C932010070B582B00D0001AC0123220033
S2140134401E21044EB0472378DB07DB0F2B7002B03A
S21401345070BDC046BD32010010B50A000623282102
S214013460014CA04710BDC046BD32010010B50A0090
S21401347001230F21014CA04710BDC046BD320100FB
S21401348070B582B004000E00012301AA1221094D75
S214013490A847002801D002B070BD01AA01210E4044
S2140134A01178012399433143117012212000024CF7
S2140134B0A047F0E7BD320100C932010070B582B005
S2140134C00D0001AC012322001221044EB0472378DF
S2140134D0DB07DB0F2B7002B070BDC046BD320100AA
S2140134E00048704700000020F0B583B0012116485F
S2140134F0164B984704006B46DD1D134E144F2900EA
S2140135003000B84704432B78002BF8D10E4D01212B
S2140135102800104B98470600002128000E4B9847BC
S21401352034430443062128000C4B984704430121E9
S21401353028000B4B9847044301212800094B984764
S214013540204303B0F0BDC0460000002081340100D6
S214013550BD340100F5330100FD320100793301006D
S2140135603D330100B933010000B583B06B4600223C
S214013570DA7107330B482E3202700B4A4260022280
S214013580C28183600123838162320021074B984701
S214013590002803D16B46D87903B000BD0448054B1B
S2140135A09847F7E7B0420020A87B0200B53101003A
S2140135B07C7B02008D8E010010B582B000230029AD
S2140135C002D1180002B010BD01AA0C4B1B88138053
S2140135D00B4B2E241C705A600222DA819860998166
S2140135E0623200211800074B98470400031EE8D0FA
S2140135F00548064B98472300E3E7C046907A020049
S214013600B0420020B53101007C7B02008D8E0100A6
S21401361010B582B0012423008B400F2119404900C8
S21401362001231A400A4301AB102119705C7098708F
S214013630DA7006482E22027043600423C3810023F9
S21401364083815431024B984702B010BDB04200202E
S2140136505131010030B583B00E246D462C700A3C02
S2140136606C702A716971AB714300C018030AAB70A4
S214013670E870044845600723C3816421024B9847DC
S21401368003B030BDB04200205131010000B583B017
S21401369001AB064A92881A80054843600223C3811B
S2140136A06421044B984703B000BDC046907A0200DF
S2140136B0B042002051310100F0B5CE4600B584B0CD
S2140136C04B482E2303704B4B43600223C38103AB4D
S2140136D083600123838164220021474B9847002899
S2140136E049D103AB1B78552B49D04448444B9847E6
S2140136F03F48444B43600323C3816421424B9847B0
S214013700002840D13A48414B43600323C3816421DA
S2140137103D4B984700283AD135483D4B436004233A
S214013720C3816421384B98470190002833D1FF2389
S214013730FF22FF210F20374EB047374CA047C82045
S2140137404000364B98470023002200210F20B04747
S214013750A04727482E230370314B43600323C381C0
S214013760002383816421284B9847002817D100261F
S21401377003272C4D1AE02C48214B9847B8E72B48D5
S2140137801F4B9847B4E72A481D4B9847BAE7294884
S2140137901B4B9847C0E72848194B9847C7E7274867
S2140137A0174B9847E3E70136102E1BD0F2173C0063
S2140137B01440A419A410E400920FB3183B409B1ABE
S2140137C0E418E4B2012239002000A847814601220C
S2140137D002212000A8474B460343E4D01748084B74
S2140137E09847E0E7019804B004BC9146F0BDC04696
S2140137F0B0420020A07B0200B5310100B87A020079
S2140138008D8E0100B07B020051310100B47B0200B5
S214013810AC7B0200553601008D3601004580010063
S214013820A47B020011360100987A0200C47A0200D5
S214013830D87A0200F87A0200247B0200587B020044
S21401384090B587B000AF78609E4B18009E4B9847A6
S2140138509E4B01221A709D4B1B78012B00D12AE149
S214013860022B03D0002B00D18CE020E1984B0022E4
S2140138701A70984B00221A7005E0964B1B7801339C
S214013880DAB2944B1A70934B1B78132B06D8914BD4
S2140138901B781A00904B9B5CFF2BEED18D4B1B784F
S2140138A00133DAB28B4B1A708C4B1422FF211800AD
S2140138B08B4B98478B4B00221A701723FC188A4BA8
S2140138C09847030023701723FB181B780F2B03D987
S2140138D01723FB1810221A701723FB181B78002BCE
S2140138E007D01723FB181A78804B11001800804B5D
S2140138F098477E4B102200211800794B98471623D3
S214013900FB1800221A7032E07A4B18006E4B98476B
S2140139101623FB181B78704AD05C774B1B78D9B2FC
S214013920764B1B78DAB2764B1B78DBB2754CA04728
S214013930754B9847FA239B001800744B984716233B
S214013940FB181B78644AD05C0023002200216D4CD2
S214013950A0476D4B9847FA239B0018006B4B98477E
S2140139601623FB181A781623FB1801321A70162331
S214013970FB181B78584AD35CFF2BC5D1534B00224A
S2140139801A709BE01523FC18574B984703002370C9
S214013990564B102200211800514B98471523FB184F
S2140139A01B780F2B03D91523FB1810221A70152329
S2140139B0FB181B78002B65D01523FB181A784B4B88
S2140139C0110018004A4B9847031E5BD100233B6148
S2140139D050E0464A3B69D3181B789B08DBB2002BA4
S2140139E000DA0733DB10DBB29B00D9B23F4A3B69F2
S2140139F0D3181B789B08DBB207221340DAB20F23D9
S214013A00FB188A181A70394A3B69D3181A780E239C
S214013A10FB1803210A401A700E23FB181B78032B90
S214013A200FD1354B1B78D9B2344B1B78DAB2344BF5
S214013A301B78DCB20F23FB1818782300314CA04703
S214013A4015E00F23FB1818780023002200212D4CC7
S214013A50A0471F4B1B781900204B0F22BA1812786B
S214013A605A541B4B1B780133DAB2194B1A703B6957
S214013A7001333B611523FB181A783B699A42A8DC8F
S214013A80214B9847124B1A78124B1B789A4203D255
S214013A900F4B1B78132B10D91D4B18000A4B984758
S214013AA0104B01221A70094B01221A7005E0074BD0
S214013AB000221A7002E0C04600E0C0463220134BD6
S214013AC09847C8E6B87B02008D8E0100F8420020B8
S214013AD08804002089040020D4420020C04200202F
S214013AE04B6202008A04002069350100E84200208A
S214013AF0B9350100CC7B0200870400200C000020B1
S214013B000D000020553601008D360100458001006C
S214013B10DC7B020080B582B000AF7860084A7B6823
S214013B201000190014231A00064B9847064B022270
S214013B301A70064B00221A70C046BD4602B080BD00
S214013B40D442002015620200F84200208A040020B8
S214013B5080B500AF024B1B781800BD4680BDC0463D
S214013B608A04002080B500AF014B1800BD4680BD19
S214013B70C042002090B583B000AF040008001100D9
S214013B80FB1D221C1A70BB1D021C1A707B1D0A1C11
S214013B901A70084BFA1D12781A70074BBA1D127864
S214013BA01A70064B7A1D12781A70C046BD4603B0CD
S214013BB090BDC046870400200C0000200D000020A8
S214013BC0024B1A78104318707047C0468C040020C8
S214013BD0064B1A6801321A601B68282B02D901228B
S214013BE0024B1A600122024B1A70704794000020A3
S214013BF0EC060020F0B585B0040003AB00221A7075
S214013C005A709A704268936852681B4901201B4D8E
S214013C10A84723689C68042219492000194B984735
S214013C20002827D1201D02902379002B12D00024D2
S214013C30154E03AD0A2202A9B0476055029B1A78B9
S214013C402C2A07D1581C0290022C03D001345B7831
S214013C50002BEFD103AB1C785D789E7800962B0085
S214013C6022000A490120054FB847320029002000EA
S214013C70074B984705B0F0BD087C02003D8F010058
S214013C80107C020011660200BD670200187C02006B
S214013C90753B010010B504000122084B1A70036839
S214013CA09968DA680648074B984722689368D2688D
S214013CB005490120054CA04710BDC046E40600207A
S214013CC02809002015620200007C02003D8F0100D9
S214013CD070B584B005000C00FF2213000B40090EDE
S214013CE00291210C11400191210A0A400092020022
S214013CF004490120044EB04721002800034B984791
S214013D0004B070BD4C8002003D8F0100552D0200AD
S214013D1010B5014B984710BD8139020010B5014B13
S214013D20984710BD6121020010B5014B984710BDA0
S214013D305521020000B587B06846134B9847134BD0
S214013D40029380239B000393114A04920593114B1F
S214013D506A461380104B938069461048104B98476B
S214013D60021E07DB0F490D480F4B9847021E06DB64
S214013D7007B000BD0D4901200D4B9847FEE70D49E0
S214013D8001200B4B9847FEE7292102002807002057
S214013D90780900205B07000070170000F00600207D
S214013DA071200200B93D010045210200C47C0200D9
S214013DB03D8F0100F87C020030B587B00400012970
S214013DC030D0052945D0002901D007B030BD136891
S214013DD0002B1CDB21490120214B9847214A002357
S214013DE005930121049103930293019300921E4BC4
S214013DF020001E4CA047002804D01D490120184B66
S214013E009847E2E71B490120154B9847DDE71A4D15
S214013E102A001A490120124B984729002000184B06
S214013E209847D2E71278002A0ED1164B023216496D
S214013E30164DA847164B022216492000A8471649D8
S214013E400120074B9847C0E714490120044B9847C7
S214013E50BBE713490120024B9847B6E71C7F0200D7
S214013E603D8F0100447F0200387F02009921020045
S214013E704C7F0200747F0200087F0200907F0200E0
S214013E806D210200953C0100C87F02009D220200C0
S214013E90F53B0100DC7F0200F07F02000480020097
S214013EA03880020010B582B0154B1B78DA0712D5A0
S214013EB09A0715D55A0718D41B071BD41149012098
S214013EC0114B984700230093012210491048114CCA
S214013ED0A04702B010BD104901200B4B9847F8E7E8
S214013EE00E490120084B9847F3E70D490120064B80
S214013EF09847EEE70B490120034B9847E9E7C04690
S214013F008C0400202C8102003D8F010058810200A4
S214013F1054430020853202007C800200A880020003
S214013F20D480020000810200F0B5D64600B59AB0F2
S214013F300190029100280DD000290BD0874B1B78E9
S214013F401B0700D5C5E0864B30221A700A325A701C
S214013F50844C08E084490120844B98471AB004BC7D
S214013F609246F0BD0400601E03782F2BFAD1804BD9
S214013F709847012800D8C1E0794FB81C21007D4B35
S214013F8098474122002109A87B4CA047092200211D
S214013F9006A8A04700230593784C0022390020008C
S214013FA0774B984707002000764B9847002F7DD126
S214013FB06B486F4B9847402878D82E216848724B3B
S214013FC09847041E3BD06A4B9847070086B2072ED7
S214013FD021D8210006A8674B98476148644B98474B
S214013FE03F043F0CC71B3C2F0AD93C27BF1BBFB25F
S214013FF03A005B4909A8654B984701239A4612E0A7
S2140140005749641AA7B22404220C09A85F4B9847A3
S21401401001239A4607E03C22514909A85B4B984781
S21401402000239A463C277C1CA4B22D2209ABDA5504
S2140140300126E31C09AA94466344039319E03C2233
S214014040474909A8514B984700239A463C27EAE777
S2140140504A4F002209A93800494B98470500380005
S214014060484B9847002D17D10136494BB2B29A42B8
S2140140701CD83200474905A8474B984709AB181981
S214014080032205A9414B98475346002BE0D006A9C9
S2140140900398384B9847DBE7314C4022002120003B
S2140140A0354B984709A92000324B98472C4C2200E3
S2140140B03A4901202D4B98470A2221002F48304BC0
S2140140C09847002822D10022354B1A600820354B2C
S2140140D098470023099309AB029A01992748324C65
S2140140E0A047002818D02548264B984720202D4B5E
S2140140F098472E4901201D4B98472FE72C49012050
S2140141001A4B98472020274B984727E70200294952
S2140141100120164B984721E7214C236809998C46C4
S21401412063441A002360244D2B68244901200F4E56
S214014130B04722682B689A4200D20FE70F48114B0E
S21401414098471F490120094B9847802212041D4BAE
S2140141505A611020134B984700E7C0468C04002094
S21401416050000020798102007C8102003D8F010011
S21401417003660200B76502004B620200C00600201B
S214014180DD100200291502005D660200336602009A
S214014190E7030000A081020009650200A881020071
S2140141A0780B0020C13B0100651202004482020028
S2140141B0D081020010820200E80600208082020000
S2140141C0B48202000044004170B51400042907D8E7
S2140141D089002D4B5B589F462C4901202C4B984754
S2140141E070BD2C4901202A4B984704202A4B98473A
S2140141F0F6E71288636829490120254DA8472388D8
S214014200C82B10D16168264B19600022254B1A6015
S21401421080239B009942E3D8A068234B984710203F
S2140142201D4B9847DCE720201B4B9847D8E71168C1
S21401423050681D4B9847237A002BD1D01020164B7F
S2140142409847CDE7126819490120114B9847236812
S2140142500B33C5D1164B1B781B0706D4144B1B78A2
S2140142605A070BD4134B9847BAE71348134B984792
S2140142700F4A137808218B431370EFE70422934308
S2140142800B4A1370EEE7C046EC7B02002C7D020061
S2140142903D8F0100647D0200C13B0100907D02005C
S2140142A0E8060020780B0020293F0100CC7D0200A3
S2140142B08C040020A53E0100C0060020291502003E
S2140142C010B582B02C2803D0322837D002B010BDEA
S2140142D00B78012B1DD0002BF8D128490120284B43
S2140142E09847284A137802218B4313701B0717D46B
S2140142F0244B1B785A071CD401212348234B98478B
S214014300FF230093224B01220A212248224CA04778
S214014310DCE7224901201A4B9847214B9847D5E7FD
S2140143202048214B9847174A137808218B4313706E
S214014330DEE704229343134A1370DDE74B780A78CD
S214014340C878019089780091184901200C4CA04743
S2140143500220174B9847174B1B78012B0AD016499A
S2140143600948164B98470028B0D015490120044B40
S2140143709847ABE7134B9847A8E7C046F08402007E
S2140143803D8F01008C040020F0060020312202003F
S214014390788002001485020099B30100D0840200DF
S2140143A0B5B30100C00600202915020020850200D1
S2140143B0C13B01008B040020087F02006D21020032
S2140143C048850200A53E010070B51C4B98471C4964
S2140143D001201C4B98471C4E1A4C09E01B49A0476C
S2140143E01B490120A0471B4D0020A8470228FBD1EE
S2140143F00020B0470128F1D00028F9D11649013034
S214014400104B9847154C8C22920000212000144B2B
S214014410984721000020134B98470B2807D01249D4
S2140144200120084B98470120104B984770BD0B227E
S2140144300F490A38034B9847F8E7C046B990010080
S214014440FC7D02003D8F0100ED970100347E0200E5
S2140144505C7E0200D9900100907E0200900400204C
S2140144604B620200AD100200E47E0200C13B010077
S214014470B47E020010B584B001AC2000074B98470B
S2140144803723019300236360013323720133E37200
S21401449021000720024B984704B010BDDDD601006D
S2140144A0F1D6010010B5002207210448044B9847B5
S2140144B000210720034B984710BDC046D13B0100A1
S2140144C099D50100C5D50100F0B587B01422FF21AA
S2140144D001A8284B9847092227492848284B98477E
S2140144E000283CD127490130274DA847234C2200FC
S2140144F026490120A847230009330093637A002B3D
S21401450015D001AC17256D441C480930204E0A22EF
S2140145106946B0472070009B1A782C2A07D1581C90
S2140145200090AC4203D001345B78002BEFD11949DF
S2140145300120154B984701AC06AF174E124D227855
S21401454031000120A8470134A742F8D101A8134B36
S214014550984701280BD112490B4B984707E01149A0
S2140145600120094CA047054A0F490120A04707B082
S214014570F0BDC0464B6202002C7C020028090020D8
S21401458011660200387C02003D8F0100547C020057
S214014590BD670200587C02006C7C02001D2C0100E5
S2140145A0707C02008C7C0200BC7C0200F0B5C64622
S2140145B000B594B06420C24B98470022C14B1A70D4
S2140145C004210520C04CA047C04D286000220621CA
S2140145D00520A047BE4B1860002214210220A047E8
S2140145E0BC4B1860002202210520A047BA4B186078
S2140145F02B68002B43D0B64B1B68002B3FD0B54B26
S2140146001B68002B3BD0002839D0B448B44B9847E0
S21401461007A8B44B9847B44C07A92000B34B98475A
S2140146202000B34B984707A8B24B984780239B00BE
S2140146300B93089407A9B048B04B9847021E22DB9B
S214014640AF49AD48AF4B9847AF4B9847AF4B9847EC
S214014650AF4B9847AF4B9847182200210EA8AE4B98
S2140146609847AE4B9847AE4B0E930EA8AD4B984766
S214014670021E0DD0AC490120AC4B9847FEE7AC4872
S214014680974B9847C1E7AB490120A84B9847FEE7EF
S214014690A94C2200A9490120A44B9847A84B98474A
S2140146A0A849A948A94B9847FF230093A84B012284
S2140146B00A212000A74CA047824B1B789B070AD4EF
S2140146C0A54E894DA54C0020B0472800A0477D4B3C
S2140146D01B789B07F7D5FA208000794B9847012273
S2140146E09F4B1A701E009C4B984632E0002B00D060
S2140146F0D8E19C4B9847844B984792499248934BF4
S21401470098478F4B98473423974AD35C002B04D0A5
S21401471096490120854B98470AE095491000954B2C
S2140147209847002857D134238F4AD35C002BEFD10A
S21401473001228B4B1A7007A900230B70634B186874
S21401474000228D4B9847012800D1AFE164205C4BD5
S21401475098473378012B43D05AB2012AC6DD022B83
S21401476000D172E1032B00D09CE1564B1B7830221E
S2140147701A420BD1784D5C4C784F0020A847200098
S214014780B847504B1B7830221A42F6D07B4901209D
S214014790664CA0477A490120A047724B9847FA20F9
S2140147A08000474B98470022764B1A7007A9764B34
S2140147B00A0031CB31C20A227448754B984700284B
S2140147C000D16BE1020073490020584B9847002244
S2140147D0634B1A70AFE770490120544B9847A2E724
S2140147E00020C04740485D4B9847394B1868002267
S2140147F005A9614B9847012820D0374B186800223D
S2140148000A2169445C4B9847012834D0314B18681B
S214014810002207A9584B9847012843D03423524A0F
S214014820D35C002B00D00BE15C4B1B78002B82D0B5
S21401483000225A4B1A705A4B98477CE705AA00216A
S214014840535E584C0420115E01910221525E009283
S214014850554A3F212000554FB8472000544B9847F2
S21401486003000022019201320092220051493E4883
S214014870514CA047C1E70A236B441B88494C4F4A59
S2140148803F212000494FB8472000494B9847030075
S2140148900022019201320092220049493248464CD8
S2140148A0A047B3E73F4A474B03CB03C21B8813809D
S2140148B007AB1F78FF2F00D19CE000243B4D89E019
S2140148C0458001008C0400207D6A01008C0B0020CD
S2140148D0880B0020840B0020800B00201083020030
S2140148E08D8E0100C93B0200FC420020D53B020030
S2140148F0813C0200E12B020054430020092C0200F7
S214014900C9410100BD2C0200353D0100C94301002B
S21401491075440100A54401004B620200D1A00100CC
S214014920C1420100F5AF0100748302003D8F010012
S214014930E88202002C83020014850200A083020094
S21401494065CE01001D3D0100293D0100E5CE0100B7
S2140149507880020099B3010021B10100093D0200EF
S2140149607C0B0020A9CE0100F0060020C4830200C3
S214014970087F02006D210200557201006884020062
S214014980908402008B040020C4840200C00600202C
S214014990DD100200A084020048850200E406002023
S2140149A0C944010010000020E0830200A564020053
S2140149B003660200048402006122020018840200D9
S2140149C0288402002C7C020003A92C230B803A4881
S2140149D03A4B98473B003A4A032103A8A84703A944
S2140149E03548364B9847013407ABE75CFF2F01D0BB
S2140149F0142CE9D1304C2000324DA8472018032250
S214014A003149324B984721000120314FB84731498F
S214014A100120B847304B98472000A84703000022E2
S214014A2001920132009222002C492D482D4CA047BC
S214014A3004002D4B984722002C490120B847EDE68B
S214014A40642110002A4B9847EEE62A4924482A4B4F
S214014A50984700281DD13423214AD35C002B07D068
S214014A60264D170034240020A8473B5D002BFAD1C1
S214014A70234B98470122234B1A7023492348244B82
S214014A809847244B9847244B98470322234B1A7088
S214014A9051E6234901200E4B9847DCE72148224B7B
S214014AA0984794E600221D4B1A7044E607AB1A7825
S214014AB01A4B1A704AE6C0461000002089650200AB
S214014AC0408402000366020044840200156202006C
S214014AD03D8F01009CAD0200717D010048840200FB
S214014AE0F006002061220200197F01005C840200AA
S214014AF0C1220200087F02003122020021B101001A
S214014B00A9CE01008B040020D13C0100113D01001B
S214014B10E5CE010065CE0100A53E01007C0B00201C
S214014B2048850200B08402008D8E010010B582B067
S214014B306B46D871032801D902B010BD044B186822
S214014B4000230A2269460731024CA047F4E7C04613
S214014B508C0B0020B96B010010B50100034B1868DF
S214014B6000230A22024CA04710BDC046880B002035
S214014B70B96B010010B50100034B186800230A2227
S214014B80024CA04710BDC046800B0020B96B010047
S214014B9010B50100034B186800230A22024CA047F7
S214014BA010BDC046840B0020B96B010001680722C6
S214014BB0CB691A42FCD17047F0B5D6464F464646F9
S214014BC0C0B58AB006000F00140031600800A04B83
S214014BD09847A04A116A851C0123AB400B43136218
S214014BE009A9237B0B701430C5B228009A4B98474D
S214014BF028009A4B9847207B0021994B98473B68A1
S214014C001C209B0705D50AB01CBC90469946A246B7
S214014C10F0BD3B681738DB07F5D430688C4B9946F6
S214014C20984705008F49904B9847AD008F4BEE5043
S214014C3000233376737600257383B3832522B55418
S214014C40336214333B60336898461800C847814680
S214014C50802308AA1370557001239370D570E069FC
S214014C60276A002800D1AFE008AB1870022308AA13
S214014C705370000CC0B211007D4B9847002F00D135
S214014C80A7E008AB1F70022308AA53703F0CF8B2C6
S214014C901100774B9847A38AF380E38A3381237EFA
S214014CA08022002B04D1734B9B789B07DB0FDA0124
S214014CB0A16823690B4313432422A25C002A02D075
S214014CC08022D2051343A26A13432C22A25C002A37
S214014CD003D180229204914202D18022120513430D
S214014CE02D22A25C002A02D08022120413432E2217
S214014CF0A25C002A02D08022D203134342461268E5
S214014D0013434246136080235B00536048461430C9
S214014D10C0B2594B98470790FA239B0022685A4322
S214014D20914663689A46554DA847009001914B46B7
S214014D305800A84702900391208EA8470490059139
S214014D404F4F504A504B00980199B84702000B004C
S214014D5004980599B8474D4E00224D4BB047049034
S214014D6005914846A84702000B0004980599B847E4
S214014D7002000B00474D00980199A847029A039B31
S214014D80B0470022444BA847029A039B434DA847CD
S214014D90434B9847050080239B04A2689A421ED085
S214014DA003004020FF2D00D92DE700240020FF2519
S214014DB01D40240625430004FF231B041840054319
S214014DC04346DD6000201EE700214046354B9847EC
S214014DD04AE701214046334B9847070051E7FA2638
S214014DE0B60053465E430098019902000B00274C1B
S214014DF0A047009001913000204B984700222A4B93
S214014E00B84702000B0000980199244CA0470022E5
S214014E10214B204CA047224B9847041E0CD0310052
S214014E200798224B98470238001B2B00FF2D0CD801
S214014E30FF28BCD94020E6E67100481E079B9C4629
S214014E4060441A4B98470138EFE74020DBE6C0463E
S214014E5005DD010000040040A5F0010019F0010085
S214014E6041DB01007523010041DD0100545500209E
S214014E70CDF1010000200041C1F00100ED6002000B
S214014E805955020095D626E80B2E113ED148020050
S214014E9000002440595A02000000F03FF14E020083
S214014EA0856002008DDB010000000840E13F020042
S214014EB0F8B5CE46474680B5040003689946144EB9
S214014EC0B04725682800134B984698471F2318407B
S214014ED001273900814061330F4AD1502000B04785
S214014EE083232B752B762B68022293432B600B4B67
S214014EF098472068C0470A4B98470A4B98472000B6
S214014F00B0474B461F600CBC90469946F8BDC0465C
S214014F10AD4B01007DDD010000E100E0F1D40100B0
S214014F20F5F0010031D5010003681A7E920707D516
S214014F3002221A765B8B9B074120DB1718407047CD
S214014F405A8B520706D55968C02292020A435A6004
S214014F501820F4E70020F2E730B5026800230124A8
S214014F600225117E21420BD1117E294206D1013341
S214014F709BB201899942F4D8122002E0002000E099
S214014F80002030BD10B5046862688023DB0213433D
S214014F9063606162024B98470123237610BDC046C9
S214014FA0594F010070B58000164BC45823689D7B8D
S214014FB0227E637E13401D40EB0706D4AB070BD45D
S214014FC0EB0610D4AB0615D470BD2000A368984735
S214014FD0012322689373F1E72000E36898470223D0
S214014FE022689373ECE72000236998471023226810
S214014FF09373E7E7200063699847236820229A7332
S214015000E2E7C0463C44002010B50020014B98471B
S21401501010BDC046A54F010010B50120014B9847B1
S21401502010BDC046A54F010010B50220014B9847A0
S21401503010BDC046A54F010070B50A00094B1B689C
S214015040002B0AD0074C25682B685968064B9847F1
S21401505068682060431E984170BD0449014B196081
S214015060F0E7C046940B0020336602009C00002047
S21401507070B5051E06D008200A4B9847041E03D1BA
S21401508072B6FEE772B6FEE7074B98472560002327
S2140150906360064B1A6854601C60054B98470120F4
S2140150A070BDC046C566010001660100980000207B
S2140150B019660100F0B5DE4657464E464546E0B550
S2140150C083B0060000910192394B1B68002B11D06A
S2140150D01B689B683200019900989847002802D106
S2140150E00022334B1A6003B03CBC90469946A24658
S2140150F0AB46F0BD2F4C2E4B1C602F4B9946202300
S21401510098462E4B9B462A4B9A460AE002002900F7
S2140151103000D84700280DD0646853461C60002C28
S2140151203ED027683D682800C847335C4246934313
S214015130F2D1EBE73F7B7FB2002F2DDB3378002BDC
S21401514028D0320000250021012408E001290AD0D8
S21401515001356DB2210001321378002B05D0202BCA
S214015160F4D00100F7E72100F5E701290FD0104B35
S2140151701B68002B14D0AF42AAD0019A10490098A0
S214015180104B984700220A4B1A600020ABE7013DFE
S2140151906DB2ECE70025EAE7054B1B68002B97D1BB
S2140151A0019A09490098074B984700209BE7C0469B
S2140151B0900B00209C00002003660200116602008E
S2140151C06C85020033660200C485020030B50023F8
S2140151D01360002400290AD1002027E0013003785B
S2140151E0202BFBD0002B20D00134A1420BD003781A
S2140151F0002B1ED0202BF1D001300378002B18D0C5
S214015200202BF9D1EAE7037820218B430FD0040045
S214015210202513680133136001342178A943F8D19E
S2140152205A1E93415B42184000E0002030BD00202A
S214015230FCE70378D6E7000010B5014B984710BD90
S214015240B978010010B5024B984780B210BDC04630
S2140152501185010010B5024B9847000C10BDC046E1
S2140152601185010070B504000D00044B9847010C30
S214015270090429432000024B984770BD118501009F
S2140152801D85010070B504000D00054B984701040B
S214015290090C2D0429432000024B984770BDC046D7
S2140152A0118501001D85010010B5024B984780B29B
S2140152B010BDC046B178010010B5024B9847000CEE
S2140152C010BDC046B178010070B504000D00044B56
S2140152D09847010C090429432000024B984770BDEA
S2140152E0B1780100B578010070B504000D00054BDA
S2140152F098470104090C2D0429432000024B9847C6
S21401530070BDC046B1780100B57801000D4B1B6831
S214015310002B0DD001230B49DA005258002A08D081
S21401532001330A2BF8D1084A13680133136070471A
S2140153300023044ADB009850D318012252425A60D7
S214015340F5E7C046A00B0020F00B0020F8B5CE46CE
S214015350474680B51D4B1B68994600241C4E1B4DC5
S2140153601C4B98461BE01A4FDB00D8591A4B98473E
S214015370164B1B68DB00FB185B68FF22024003210B
S214015380EA20164FB8470134104F3B68581C0A21D3
S214015390134B98473960002C13DC894511D02B68D4
S2140153A0DB0098590028EFD0C047084B1B68D9008E
S2140153B0074A521852689042D5D2054A5218506090
S2140153C0D1E70CBC90469946F8BDC0469C0B002020
S2140153D0A00B002025850100118501005161010007
S2140153E0C142020070B5054D054E064C01E0042091
S2140153F0A047A8470028FAD0B047F8E76D56010045
S2140154004D5301004580010010B5014B984710BD72
S2140154105185010010B582B00400124B9847012C4B
S21401542009D0022C0AD0002C0CD10F4B1B68002B84
S2140154300CD002B010BD0D4B9847F6E70C480D4B4B
S2140154409847F2E70C480B4B9847EEE7064B01935B
S214015450042300930023C82208490948094CA047A1
S214015460E7E7C04681560100980B002065640100FD
S2140154708089020059580100C0890200F48902009F
S214015480E5530100557A010010B52F4B1B68092220
S214015490DA65013264215A5401315A5401315A54A1
S2140154A0053201315A5462396820195401301954B1
S2140154B00130195401301954013019546B315A54C2
S2140154C001315A5401315A5401315A5401315A5456
S2140154D001315A5401315A5401315A5401315A5446
S2140154E068396D32995401329954013299546B3AA4
S2140154F013301A54112401301C54013019547231DE
S2140155005A5401315A5401315A5400217532995274
S214015510A03102329952A03102329952A0310232A0
S21401552099520A4902329952094902329952094955
S214015530023299520849023299525F310232995227
S214015540064A1A6610BDC046F40B0020FD02000094
S21401555052030000A203000001040000BF04000083
S214015560174B00225A821A800A329A825A800A32CD
S214015570DA829A800A321A83DA800F325A831A81C3
S21401558005329A835A810532DA839A8105321A8462
S214015590DA8105325A841A82383A9A840A32DA84CF
S2140155A00A321A850F325A8505329A850532DA850E
S2140155B005321A8605325A8605329A867047C046E3
S2140155C0100C0020082813D880000B4B1B589F4650
S2140155D00A4810E00A480EE00A480CE00A480AE0C9
S2140155E00A4808E00A4806E00A4804E00A4802E0D9
S2140155F00A4800E00A4870475C860200C886020036
S2140156001087020064870200B0870200FC87020050
S214015610488802009C880200F48802005089020033
S2140156208086020010B5002A0DD00B7803700B7827
S214015630002B08D0002301339A4204D0CC5CC4541A
S214015640CC5C002CF7D110BD10B5064B1B68002BA7
S21401565001D000221A63044B1B68002B00D0984728
S21401566010BDC046F40B0020BC0C0020034B1B6889
S214015670002B01D0186B70470020FCE7F40B0020CC
S214015680F8B5DE4657464E464546E0B5514B1B68D3
S214015690002B00D199E01B78012B00D18FE04E4BF7
S2140156A01A684E4B1A604B4CBD252D012A0000216D
S2140156B020684B4B984723684A4A9A8105229A7379
S2140156C00022DA731D6196214900996146495965A0
S2140156D09A655A63454B98472068454A454BC250E0
S2140156E0C8220433C250444BC73AC250434A5533CA
S2140156F0FF33C250424B9C46604450224149424BC4
S214015700984723684149424A99500A21414A995487
S2140157100131414A99540131404A99540131404A74
S2140157209954404A6431995472253F4A9D547326D0
S2140157303E4A9E5474273E4A9F54F12290463D4A63
S21401574041469954F22291463B4A49469954F322DE
S21401575092463A4A51469954F4229346384A594653
S2140157609954384B984723685A46DA7252469A72C9
S2140157704A465A7242461A72DF719E715D717122F3
S2140157801A710422DA70032322689370013B22689F
S2140157905370236801221A702B4B196800290ED00A
S2140157A00C4C2368164A9446634418005022164B44
S2140157B0984722680121254BD150254B98473CBC80
S2140157C090469946A246AB46F8BD224A014B1A605E
S2140157D065E7C046F40B002018E000E018500020F2
S2140157E04B620200A11A0000F0F0F0F089540100AB
S2140157F0F1F1F1F15C05000064050000F2F2F2F24D
S214015800BC060000C88B020025560100F3F3F3F333
S2140158100C070000C40B0000C50B0000C60B0000FF
S214015820C70B0000C80B0000C90B0000CA0B000024
S214015830CB0B0000CC0B0000CD0B0000CE0B000004
S214015840CF0B000061550100AC0C0020B40600002F
S214015850495601004844002010B504000E4B1B6851
S214015860002B01D00D4B98470D4B1B68002B00D029
S21401587010BD0B4B1C60084B18680028F8D0094B6C
S2140158809C46604450222100074B9847024B1A68F9
S2140158900121064BD150EBE7F40B002049560100DD
S2140158A0AC0C0020BC06000025560100B406000022
S2140158B010B50C4B1868036B002B10D0C3692C2253
S2140158C0FF32934206D89B00E222D20094466344FC
S2140158D0C01810BD0448054B98470020F9E7002082
S2140158E0F7E7C046F40B0020DC8B02005958010094
S2140158F0F0B5C64600B5002806D0070000250028EA
S21401590005D0254B98460AE02448254B984704BC09
S2140159109046F0BD012A21D00135BD42F7D243465B
S2140159201C68E369EB189E00A219E221C9008C46A7
S2140159306244127811006731C9B20E29EAD868327A
S214015940D2B2D318A1698B42E6D2013292006346E5
S214015950F01820180021134B9847DDE70133A269A0
S214015960934208D2E223DB00F01820180822002117
S2140159700C4B9847D0E7E223DB00E0180422002115
S214015980084B9847E223DB00F01820180422002178
S214015990044B9847C0E7C046F40B0020FC89020080
S2140159A0595801004B62020010B50B4B1B681A6B6D
S2140159B0002A10D05A6901325A61DA690132DA6175
S2140159C02C21FF318A4203D901221A620022DA61B0
S2140159D00120024B984710BDF40B0020F15801003E
S2140159E070B504000D00FF2802D00D4B984203D17C
S2140159F0AC4205D3280070BD0A480B4B9847F9E71F
S214015A000A4B9847002809D0012303702B00A343B3
S214015A101A0A42701B0C4380054B98472540E9E75C
S214015A20FFFF0000008B020059580100B158010029
S214015A30A959010010B5082914D8002817D00E4B13
S214015A401A68531864331B78834210D353187C3377
S214015A501B78013858434031490051180B89C0184A
S214015A6080B208E00548064B9847002003E0054849
S214015A70034B9847002010BDF40B002090910200C4
S214015A8059580100D091020010B50B000100180012
S214015A90044B9847044B1B6818189C30012303706D
S214015AA010BDC046355A0100F40B002070B5040045
S214015AB008001500082C13D80D4B1B681B196433FE
S214015AC01B788B4210D321000A4B9847084B1B6862
S214015AD01C19703422781B189B189D331D7070BDDD
S214015AE00548064B9847FAE70548044B9847F6E7FA
S214015AF0F40B0020355A0100188D02005958010098
S214015B00648D020010B504000800082C13D80F4B52
S214015B101B681B1964331B788B4211D321000C4B75
S214015B2098470A4B1B681C19703422781B189B185F
S214015B309D33187810BD0748074B98470020F9E7B2
S214015B400648054B98470020F4E7C046F40B0020B2
S214015B50355A01003C8B020059580100888B02001F
S214015B6070B5040008001500082C13D80D4B1B68EF
S214015B701B1964331B788B4210D321000A4B9847BC
S214015B80084B1B681C19703422781B189B189C3311
S214015B901D7070BD0548064B9847FAE70548044B4B
S214015BA09847F6E7F40B0020355A0100988C02005E
S214015BB059580100DC8C020010B50B4B1A6867239C
S214015BC0D35C83420CD30321084B9847064B1B68D2
S214015BD073229A5C1B189B189C3300221A7010BD06
S214015BE00348044B9847FAE7F40B0020355A0100A6
S214015BF0A48D02005958010070B52D4B1B68002B6F
S214015C0046D0082849D8EFF31084012383F310887F
S214015C10284A136801331360274A43009B5AD21857
S214015C2048321278002A0AD12349CD1848355A1C21
S214015C3006000836760089194988521A2A7001002A
S214015C40103149001C4A521892889A422AD31A499E
S214015C50CA184832127801339BB245006B520500D0
S214015C6008356D004D196D885B1B050018356D00F4
S214015C704919C9888B4203DD0F494819DBB2C38035
S214015C800C490B68013B0B6084F31088100070BD53
S214015C900A480B4B98470022F8E70A48084B9847F2
S214015CA00022F3E7084B9847054B98470022E7E7A1
S214015CB0F40B0020A40C0020100C0020949202008B
S214015CC059580100B88A0200C555010070B5040094
S214015CD00800151E12D0082C14D8002916D0164B11
S214015CE01B681B1964331B788B4213D32100134B9B
S214015CF09847134B1B68002B12D070BD1148124BEE
S214015D009847FAE71148104B9847F6E710480E4BAC
S214015D109847F2E720000F4B98470B4B9847ECE764
S214015D20054B1B681C19703422789C301818290002
S214015D30094B9847E1E7C046F40B0020355A0100AD
S214015D40AC0C0020048C020059580100388C02006B
S214015D50688C0200C55501002556010070B51E4B22
S214015D601B68012B2BD01D4B19681D4B1B6801317D
S214015D70C91A1C4B1B681C4A1468E243DA4224D435
S214015D801A4A1468A142A44164421C1900281FD073
S214015D90124D2B6801339B0863431A00144E33607F
S214015DA02D68013503232B4063435B189B089B1822
S214015DB033600C4A146003600C4B196070BD0028F8
S214015DC0FCD00B4B1B680360F8E7A342DED1D7E794
S214015DD0044B1C60F0E7C046B00C002014E000E065
S214015DE018E000E00C0C0020B80C0020040C002089
S214015DF0080C0020F0B583B0050000230193FF28AE
S214015E0002D0394B984235D1384B1C68636A002B57
S214015E1005D1374B1B68002B31D09B08636201A864
S214015E20344B9847019B344A11685C1A13602F4A19
S214015E301668776A002F32D0BC422CD93900200070
S214015E402E4B9847F36A9C466044F0623900200066
S214015E502B4B9847B36A9C466144B162234B1B683F
S214015E609A6A596A8A421BD3D86A0130D862521A92
S214015E709A6215E02348244B9847002014E0234BF0
S214015E801A68234B1B689A42C9D00020214B9847B9
S214015E9080086062C3E7B36A1B19B362DEE7B362C8
S214015EA0AC4203D82000284003B0F0BD1A4B9847F7
S214015EB00028F7D00C4B9D4207D0FF2D0CD0174879
S214015EC0114B9847164B9847ECE7A9230370230C10
S214015ED0438000234370F5E7A8230370230A438019
S214015EE0230E4370EEE7C046FFFF0000F40B0020D0
S214015EF0A80C00205D5D0100A00C0020E13F02001F
S214015F00ED400200548A02005958010018E000E0F2
S214015F10185000208DEF0100B1580100948A02004C
S214015F20A959010070B5041E1DD01B4B1B68002B20
S214015F3019D00F2818D8194B1B68002B18D1EFF36E
S214015F401085012383F31088144A13680133136004
S214015F50134B1B681B6B002B0ED1104A1368013BB9
S214015F60136085F3108870BD0E480F4B9847FAE70B
S214015F700E480D4B9847F6E70D480E4B984706001E
S214015F800D4B98470028E8D00223037046804470E2
S214015F900A4B9847E1E7C046B0000020A40C002059
S214015FA0F40B00209490020059580100D49002008E
S214015FB0FFFF0000F55D0100B1580100A95901007D
S214015FC0F0B583B000900C00284B1B68002B1DD049
S214015FD0D317D6185E40EFF31085012383F310889C
S214015FE023490B6801330B60002C04D0214B196840
S214015FF08C4662441A601D4B1B681B6B002B07D135
S2140160001B4A1368013B136085F3108803B0F0BD8B
S214016010FF20194B9847019031001848184B9847B4
S2140160200600184B9847071EEAD06B461B7943704B
S214016030002303704680144B984721000F48104BED
S214016040984706000F4B98470028D9D04680002372
S21401605043706B461C78631C03703C700A4B984770
S214016060024B1B68034A12681A65C9E7F40B002045
S214016070A40C0020FC0B0020F55D0100FFFF0000D2
S214016080E1590100B1580100A9590100F8B5050010
S2140160901400FE2825D8082927D8214B1B68591833
S2140160A064310B78934224D31E4B1B68002B24D1FA
S2140160B01D4B1B78002B13D0EFF31086012383F3BF
S2140160C01088184A136801331360154B1B681B6B45
S2140160D0002B16D1134A1368013B136086F3108810
S2140160E0F8BD1248124B9847FAE71248104B9847EA
S2140160F0F6E711480E4B9847F2E710480C4B9847C5
S214016100EEE70F480F4B984707000F4B98470028BC
S214016110E0D04780057044700C4B9847DAE7C046DC
S214016120F40B0020A40C0020F80B0020EC8D0200DC
S21401613059580100248E02006C8E0200B48E0200B3
S214016140FFFF0000F55D0100B1580100A9590100EB
S214016150F0B5C64600B5060014001D00FE2827D877
S214016160082929D8244B1B68591864310B789342A7
S21401617026D3224B1B68002B26D1EFF31088012370
S21401618083F310881D4A1368013313601A4B1B688A
S2140161901B6B002B03D01A4B1B78002B18D1174A08
S2140161A01368013B136088F3108804BC9046F0BD69
S2140161B01448154B9847F8E71448134B9847F4E7EB
S2140161C01348114B9847F0E712480F4B9847ECE7F6
S2140161D0FF20114B984707002900FF200F4B9847D7
S2140161E005000F4B98470028D9D0C7700670447039
S2140161F085700C4B9847D2E7F40B0020A40C0020C6
S214016200F80B00207C8F020059580100BC8F020059
S2140162100C9002005C900200F55D0100E15901005E
S214016220B1580100A9590100F8B504000D00FE2877
S2140162301CD81C4B1B68002B1CD1EFF310860123C6
S21401624083F31088174A136801331360164B1B68D3
S2140162501B6B002B03D0154B1B78002B0ED1114A5C
S2140162601368013B136086F31088F8BD1048114B84
S2140162709847FAE710480F4B9847F6E7FF200F4B71
S2140162809847070029000E480E4B984705000E4B0D
S21401629098470028E3D04770047045800B4B984719
S2140162A0DDE7C046A40C0020F40B0020F80B00200C
S2140162B0EC8E020059580100448F0200F55D010082
S2140162C0FFFF0000E1590100B1580100A959010082
S2140162D0F8B504000F2818D8EFF31085012383F3CF
S2140162E01088264A136801331360254B1B788342B6
S2140162F004D0244B1B681B6B002B0AD11F4A136862
S214016300013B136085F31088F8BD1F481F4B984763
S214016310FAE700221E4B1A601E481F4B98470700DB
S214016320174B1C701D4B9847061EE7D0144B187868
S214016330144B1A686723D35C83420FD30321184B8F
S2140163409847104B1B6873229A5C1B189B189C334A
S2140163501B78012B05D10633337004E011480B4B33
S21401636098470623337077807470054B197801229D
S21401637003200D4B98470D4B9847BFE7A40C002010
S214016380F80B0020F40B00200C9102005958010074
S214016390000C0020FFFF0000F55D0100B158010070
S2140163A0355A010054910200615B0100A9590100B0
S2140163B070B5204B1B68002B0AD0186B012806D03D
S2140163C01D4B1B68002B08D01A4B1B68186B70BD41
S2140163D01A481B4B98470020F9E7EFF31085012276
S2140163E082F3108817490B6801330B60114B1B6849
S2140163F01A63154B9847154B9847C4B2002C09D021
S2140164002000134B98470F4A1368013B136085F32E
S2140164101088D9E703200F4B9847060004000E4A60
S214016420010003200D4B98470022310003200C4B3E
S2140164309847E5E7F40B0020AC0C00201092020010
S21401644059580100A40C00200954010045520100CE
S214016450D1620100F95B010054920200CD5C01009B
S214016460AD5A010010B5014B984710BDB16301004C
S214016470030008334360012252428260C360036115
S21401648000230360704700230361704743684B6035
S2140164909A688A609A685160996008610368013356
S2140164A00360704730B50C6802000832631C02D1E5
S2140164B0026904E01A0053681D68AC42FAD25368B8
S2140164C04B6099608A60516008610368013303601C
S2140164D030BD036942688168916082684168516095
S2140164E05A68904206D0002202611A68013A1A6080
S2140164F01868704782685A60F5E7000082B000238A
S2140165000193064B1B68013301D072B6FEE772B6E3
S214016510019B002BFCD002B07047C046B40000209F
S2140165200B4A13681868203080F30988022080F32C
S2140165301488BFF36F8F3FBCAE4608BC04BC62B67E
S2140165401847C046C046C046C046C046C046C046BC
S214016550A83B002010B5031F802464041C60043B84
S2140165601960043B02491960143B1A60403810BD9B
S214016570FD6401007047000070B5134B1968FF22D7
S21401658012040A431A601968FF2212060A431A60A7
S2140165900E4D00242C600E4B1C6000200D4B9847BE
S2140165A0FA2189000C4B984701380C4B18600723D9
S2140165B02B600B4B1C600B4B98470B4B98470B4BB8
S2140165C09847002070BDC04620ED00E010E000E0D6
S2140165D018E000E08DEF0100E13F020014E000E06A
S2140165E0B400002021650100E5800100FD64010082
S2140165F080225205014B1A607047C04604ED00E048
S21401660072B6044A136801331360BFF34F8FBFF3AA
S2140166106F8F7047B4000020064B1B68002B01D11A
S21401662072B6FEE7013B034A1360002B00D162B647
S2140166307047C046B4000020EFF3108072B6704772
S21401664080F3108870470000000000000000000082
S214016650EFF309800E4B1A6820381060F0C04446EC
S2140166604D4656465F46F0C008B572B601F03AFD93
S21401667062B60CBC116808681030F0C8A046A9467E
S214016680B246BB4680F309882038F0C81847C04692
S214016690A83B002010B5074B98470400064B9847C7
S2140166A0002803D080225205044B1A602000044BB8
S2140166B0984710BD396601008D7D010004ED00E0AC
S2140166C04166010070B50400430702D007239C43CE
S2140166D00834184B9847184B1B68002B17D0174BDC
S2140166E01A68A31816498B4218D89A4216D212492C
S2140166F00D68AD18114A1360002D0FD02200290035
S2140167009420104B9847104B9847280070BD0722DD
S2140167100E4B08339343084A1360E0E7220000213A
S214016720E820084B9847084B9847094B984700259F
S214016730EBE7C046717D0100C00C0020A43B0020A1
S214016740D72E0000C15F0100197F0100C40C002094
S214016750B93F0200002801D072B6FEE7704700007C
S214016760024B1B680248C01A7047C046A43B002073
S214016770D82E000010B50400034B9847A46B034BBA
S21401678098476042604110BD01660100196601002C
S21401679070B504001600856B026C002A0BD1002030
S2140167A02368834204D16068164B984700236360D0
S2140167B00135A56370BD002E0ED18068124B984737
S2140167C0A368226C94466344A360002062689342E7
S2140167D0EED32368A360EBE7C0680B4B9847236CA6
S2140167E05B42E268D218E26021688A4203D262689C
S2140167F094466344E3600020022ED9D18542D7D067
S214016800013DD5E79586010015620200F0B5CE463A
S214016810474680B583B001900091846C002C05D06A
S214016820A26BE36B9A4203D372B6FEE772B6FEE73B
S214016830A26B0026934205D8300003B00CBC9046EC
S2140168409946F0BD4523E55C6DB22C4B98472C4B21
S21401685098472C4B1B8803421ED020002A4B984792
S214016860284B1B88034217D02536009B002B06D1E8
S2140168702000264B9847264B1E5C2036F6B2200099
S214016880224B9847224B1F5C2000224B9847C2B2EE
S21401689039003000204B984720001C4FB8471C4E4B
S2140168A0335C984620001B4B9847C3B2994620009C
S2140168B0B847335C022B19D0A26B0132D2B24946DB
S2140168C04046164B9847009A01A92000144B98475A
S2140168D006006B1C0CD1636A002BADD0200024305F
S2140168E0104B98470028A7D00126A5E70022E6E727
S2140168F001356DB24523E5549EE7C04609540100B3
S21401690055520100AC000020B95201003952010075
S214016910A4000020A95201008D600100615B010006
S21401692091670100C983010010B50C00026C002AB2
S2140169300BD0C3689B18C36041688B4201D30368C0
S214016940C360C1682000014B984710BD1562020064
S214016950F8B50700254B98474523FC5C64B2002C2C
S2140169601CDD234E234D0BE07B6A002B16D038002E
S2140169702430A84700280ED1013C64B2002C0DD06B
S214016980BB6C002BF0D000213800B0470028F3D0B4
S214016990194B9847F0E7184B9847EDE7FF22452338
S2140169A0FA54164B9847114B98474423FC5C64B243
S2140169B0002C14DD3B69002B11D03D0010350D4E27
S2140169C006E0013C64B2002C09D03B69002B06D0DE
S2140169D02800B0470028F4D0074B9847F1E7FF227C
S2140169E04423FA54054B9847F8BDC046016601009A
S2140169F00D680100C98301000585010019660100C3
S214016A0070B504000D00002821D0174B9847226866
S214016A10216CE36B4B43D01860600020A063A2603A
S214016A205B1AD318E360FF234422A3540132A35414
S214016A30002D11D12369002B05D0200010300B4BFF
S214016A409847002805D10A4B9847012070BD72B6B9
S214016A50FEE7084B9847F6E720001030064DA8479A
S214016A6020002430A847EEE701660100C983010033
S214016A7019660100F165010071640100F8B50600B0
S214016A800D001700002801D172B6FEE7080070431A
S214016A905430384B9847041E5BD0002D3BD1206004
S214016AA0E663256401212000334B98475023E754C1
S214016AB00023A3642000314EB047314D285C314B92
S214016AC0984781B22000304B9847304B19882000F8
S214016AD02F4B98472000B0472D5C20002D4B984740
S214016AE0C1B228002C4B98472C4B98472C4B984703
S214016AF02C4B1B88034212D12000204B9847204B79
S214016B001D5C2000234B9847C1B200222800264B6B
S214016B1098472000F8BD030054330360C0E7200007
S214016B20224B98471F4B1B880342E5D02000134F8A
S214016B30B847134E355C1835EDB22000B847365CC1
S214016B402000144B9847C2B231002800184B9847D2
S214016B50D2E7124B9847124B9847124B1B880342B9
S214016B60D7D0074BD85D4030C0B20021114B9847B3
S214016B70CFE7C046C5660100016A0100395201002F
S214016B80A4000020F95B0100C9520100AA00002000
S214016B90E9520100A9520100895A01000954010075
S214016BA055520100AC000020615B0100B9520100A2
S214016BB08D60010029620100F0B5CE46474680B5DA
S214016BC085B00400009101921D0000280DD0009BA5
S214016BD0002B0CD0022D0FD0AB4B9847002810D1BC
S214016BE0019B002B10D072B6FEE772B6FEE7036C6F
S214016BF0002BEFD072B6FEE7E36B012BECD072B63A
S214016C00FEE70027A14EBCE00027FBE7A04B984714
S214016C10A04B9847A04B1B8803421DD020009F4BDA
S214016C2098479D4B1B88034216D02527002D06D179
S214016C3020009B4B98479B4B1F5C2037FFB22000E0
S214016C40974B9847974B1E5C2000974B9847C2B2CC
S214016C5031003800954B98472000914EB047914F30
S214016C603B5C98462000904B9847C3B2994620005B
S214016C70B0473B5C022B1FD0A26B0132D2B2494611
S214016C8040468B4B98472A0000992000894B98472D
S214016C90A36C002B12D029002000874B98470028B0
S214016CA001D0864B9847864B98470123180005B0BC
S214016CB00CBC90469946F0BD0022E0E7636A002BC3
S214016CC008D0200024307F4B98470028EBD07B4B20
S214016CD09847E8E70028E6D0784B9847E3E7784BF3
S214016CE098476B4B98476B4B98476B4B1A8800231A
S214016CF00242DBD02000694B9847674B1A88002375
S214016D000242D3D04D26002D06D12000644B984771
S214016D10644B1E5C4836F6B22000614B9847614BC7
S214016D201D5C2000604B9847C2B2290030005F4BC3
S214016D3098470023BAE7624B984701A902A8624B1D
S214016D40984700286ED1514B9847A36B9946E76B3D
S214016D505B4B9847B9455FD14D4B98474D4B98478C
S214016D604D4B1B88034234D1200010300199574BFC
S214016D7098472000564B9847564B9847002848D0CE
S214016D800127B047A36BE26B934200D23EE7022D88
S214016D9000D13BE7019B002BA1D0002F02D102A816
S214016DA04D4B9847464B98474C4B9847374B98471F
S214016DB04423E35C5BB2013302D100224423E25454
S214016DC04523E35C5BB20133B5D100224523E2548F
S214016DD0B1E72000314B98472F4B1B880342C3D0A5
S214016DE07527002D06D120002D4B98472D4B1F5C93
S214016DF07037FFB220002A4B98472A4B1B5C9946F6
S214016E002000294B9847C2B249463800274B98477D
S214016E10AAE72A4B9847B3E720002D4B98472D4BFE
S214016E209847ADE720002A4B98472A4B9847184BBE
S214016E309847184B9847184B1A880023024200D1EE
S214016E4034E72000154B9847134B1A88002302425B
S214016E5000D12BE74D26002D06D12000104B984778
S214016E60104B1E5C4836F6B220000D4B98470D4B72
S214016E701D5C20000C4B9847C2B2290030000B4B1A
S214016E809847002312E7C0465D85010001660100B0
S214016E900954010055520100AC000020B95201000E
S214016EA039520100A4000020A95201008D600100A2
S214016EB0615B0100916701000D680100F165010049
S214016EC019660100C9830100958401000183010050
S214016ED051690100197F01007D840100717D010067
S214016EE070B5020000210120064B9847041E07D00A
S214016EF0002343600360C36000220021024DA847BF
S214016F00200070BD7D6A0100B96B0100F0B5DE4658
S214016F10474680B583B00400019116001F00002883
S214016F202DD0019B002B2CD0022F2FD0594B9847E8
S214016F300090A36BE26B9A425AD82000564B9847B2
S214016F40564B1B880025034200D19AE05D35002F81
S214016F5006D12000524B9847524B1D5C5835EDB276
S214016F6020004F4B98474F4B1F5C20004E4B9847D5
S214016F70C2B2390028004D4B9847002581E072B611
S214016F80FEE7036C002BCFD072B6FEE7E36B012B56
S214016F9027D072B6FEE7636A0125002B71D0200068
S214016FA02430434B984700286BD0002E0AD001238B
S214016FB0336066E001356DB24523E554012560E096
S214016FC001255EE001255CE04523E55C6DB220000D
S214016FD0314B9847314B1B8803422DD035239846B9
S214016FE01CE02C4B98470090A36BE26B9A42EBD9BE
S214016FF04523E55C6DB22000274B9847274B1B883D
S214017000034219D035239846002F07D12000244B80
S2140170109847244B1B5C3033DBB298462000204B4C
S2140170209847204B1B5C9B4620001F4B9847C2B2DB
S214017030594640461D4B98472000194B9847194B17
S2140170401B5C98462000184B9847A26B0132D2B2BF
S214017050C1B24046174B98473A0001992000164B9B
S21401706098476B1CA6D1A36C002B94D03900200046
S214017070124B98470235002803D0002EA0D00123DA
S214017080336000980E4B9847280003B00CBC90461E
S2140170909B46F0BD39660100B9520100AC000020E4
S2140170A039520100A4000020A95201008D600100A0
S2140170B0C9830100615B0100916701000D68010051
S2140170C041660100F0B5D646474680B583B0040058
S2140170D00F001600002804D0036C002B03D072B6F4
S2140170E0FEE772B6FEE70368002B55D04A4B984779
S2140170F00190A36B9846E36B984567D24523E55C00
S2140171006DB22000454B9847454B1B88034218D06B
S21401711035239A46002E07D12000424B9847424B12
S2140171201B5C3033DBB29A4620003E4B98473E4B01
S2140171301E5C20003D4B9847C2B2310050463C4B86
S21401714098472000374B9847374B1E5C2000374B3B
S2140171509847A26B0132D2B2C1B23000354B984784
S21401716043460133A3636B1C2AD1A36C002B18D0B2
S21401717000212000304B98470235002803D0002F0D
S21401718045D001233B6001982C4B9847280003B05B
S2140171900CBC90469A46F0BD4368002BA6D072B64A
S2140171A0FEE7636A0125002BEDD020002430244B36
S2140171B098470028E7D0002F2BD001233B60E2E759
S2140171C001356DB24523E5540125DCE72000134B5C
S2140171D09847134B1B8800250342D4D05D35002EFB
S2140171E006D120000F4B98470F4B1D5C5835EDB26A
S2140171F020000C4B98470C4B1F5C20000B4B98470C
S214017200C2B2390028000A4B98470025BBE7012582
S214017210B9E70125B7E7C04639660100B952010052
S214017220AC00002039520100A4000020A952010040
S2140172308D600100615B01000D680100416601007F
S214017240C983010010B50022014B984710BDC04606
S214017250C5700100F0B5CE46474680B585B0041E20
S214017260009101920BD0009B002B0AD0A44B9847AB
S21401727000280BD1019B002B0CD072B6FEE772B62C
S214017280FEE7036C002BF1D072B6FEE700259D4B9E
S2140172909846B4E00025FAE7009920009A4B9847F3
S2140172A09A4B98479A4B98479A4B1B88034219D09A
S2140172B02000994B9847974B1B88034212D0200019
S2140172C0964B98469847964F3D5C2835EDB2200080
S2140172D0C0473F5C2000934B9847C2B23900280054
S2140172E0914B984720008D4FB8478D4D2B5C9946A2
S2140172F020008C4B9847C3B298462000B8472B5CB9
S214017300022B1ED1814B9847884B9847C2B2414603
S2140173104846874B9847013EA6632369002B07D052
S21401732020001030834B9847002801D0824B9847A5
S214017330824B98470123180005B00CBC904699462D
S214017340F0BDA26B013AD2B2E1E77C4B98476F4B96
S21401735098476F4B98476F4B1A8800230242EAD032
S21401736020006D4B98476B4B1A8800230242E2D0EF
S21401737020006A4FB8476A4E355C5035EDB22000A2
S214017380B847365C2000674B9847C2B231002800E8
S214017390654B98470023CEE702A8694B984738E02B
S2140173A000224423E2543FE000224523E25440E019
S2140173B02000594B9847574B1B8803424ED020005C
S2140173C0564FB847564E355C6835EDB22000B84783
S2140173D0365C2000534B9847C2B231002800524B0E
S2140173E098473BE0200024300199564B98472000EF
S2140173F0554B9847554B9847002846D00125C0471E
S214017400A66B002E00D047E7019B002B9DD0002DD8
S214017410C2D04A4B98474E4B98473A4B984744231D
S214017420E35C5BB20133BBD04523E35C5BB2013363
S214017430BAD0424B984701A902A8464B9847002864
S2140174402CD12000444B9847002821D02F4B984739
S2140174502F4B98472F4B1B880342A9D120002F4B57
S21401746098472F4B1B5C022BBCD0284B9847284BC8
S2140174709847284B1B880342B4D0244B98472B4B84
S2140174809847C0B2354B9847ACE72B4B9847B5E7C2
S21401749020002D4B98472D4B9847AFE720002A4BED
S2140174A098472A4B984720002B4B98470028A5D091
S2140174B0164B9847164B9847164B1A8800230242DC
S2140174C000D138E72000144B9847124B1A88002346
S2140174D0024200D12FE72000104FB847104E355C0E
S2140174E05035EDB22000B847365C20000D4B98476A
S2140174F0C2B2310028000C4B984700231BE7C04658
S2140175005D85010001660100296901000954010039
S21401751055520100AC000020B95201003952010059
S214017520A4000020A95201008D600100455201000F
S214017530615B0100C9830100F16501001966010064
S2140175407D8401000183010051690100197F01005A
S214017550717D01009584010075670100B95B01002A
S214017560F0B5CE46474680B585B0041E019104D0DD
S214017570036C002B03D072B6FEE772B6FEE7B24B81
S2140175809847002804D1019B002B06D072B6FEE76F
S21401759000250027AD4B9846BDE000250027F9E7FA
S2140175A0AB4B9847AB4B9847AB4B1B88034219D064
S2140175B02000AA4B9847A84B1B88034212D02000F4
S2140175C0A74B98469847A74F3D5C2835EDB220005B
S2140175D0C0473F5C2000A44B9847C2B23900280040
S2140175E0A24B984720009E4FB8479E4D2B5C99466C
S2140175F020009D4B9847C3B298462000B8472B5CA5
S214017600022B24D1924B9847994B9847C2B24146D8
S2140176104846984B9847013EA6632368002B02D143
S214017620954B984760602369002B07D020001030E7
S214017630924B9847002801D0914B9847914B984719
S2140176400125280005B00CBC90469946F0BDA26BFA
S214017650013AD2B2DBE7002D01D072B6FEE7894BC4
S21401766098477B4B98477B4B98477B4B1B8803423D
S214017670E7D02000794B9847774B1B880342E0D030
S2140176802000774B98469847764F3E5C5036F6B2C8
S2140176902000C0473F5C2000734B9847C2B23900B8
S2140176A03000724B9847CCE702A8774B98473CE0EE
S2140176B000224423E25443E000224523E25444E0FE
S2140176C02000664B9847644B1B88034252D020002B
S2140176D0634B99469847634F3E5C6836F6B2200086
S2140176E0C8473F5C2000604B9847C2B23900300063
S2140176F05E4B98473EE02368002B52D02000243092
S2140177000199624B98472000614B9847614B984717
S21401771000284FD00127C047A66B002E00D03FE7B8
S214017720019B002B97D0002FBED0564B98475A4B43
S2140177309847464B98474423E35C5BB20133B7D086
S2140177404523E35C5BB20133B6D04E4B984701A9A3
S21401775002A8524B9847002835D12000504B984735
S21401776000282AD03A4B98473A4B98473A4B1B8801
S2140177700342A5D120003A4B98473A4B1B5C022B9B
S214017780B9D0334B9847334B9847334B1B8803424A
S214017790B1D02F4B9847364B9847C0B2414B9847CC
S2140177A0A9E72A4B984760683F4B98470500354B39
S2140177B09847A3E7324B9847ACE72000344B9847ED
S2140177C0344B9847A6E72000314B9847314B9847F2
S2140177D02000334B984700289CD0002D0ED01B4B21
S2140177E09847636A0021002B03D0236B1B68053181
S2140177F0C91A60682D4B9847224B9847144B9847F7
S214017800144B9847144B1B880025034200D118E7F8
S2140178102000124B9847104B1B88034200D110E7FB
S21401782020000F4FB8470F4E355C5035EDB22000A3
S214017830B847365C20000C4B9847C2B2310028008E
S2140178400A4B98470025FCE65D85010001660100AC
S2140178500954010055520100AC000020B952010044
S21401786039520100A4000020A95201008D600100D8
S21401787045520100615B01008D880100C98301004A
S214017880F1650100196601007D8401000183010094
S21401789051690100197F0100717D01009584010085
S2140178A075670100B95B01007D85010089870100CC
S2140178B0C06C7047C16470475023C05C70470000BD
S2140178C070B504000D001600114B98474423E35C85
