S019000045534535313620424F4F544C4F414445522E7372656387
S1130000082D002001370000FD360000FD360000F9
S113001000000000000000000000000000000000DC
S1130020000000000000000000000000FD36000099
S11300300000000000000000FD3600008D010000FB
S1130040FD360000FD360000FD360000FD360000E0
S1130050FD360000FD360000FD360000FD360000D0
S1130060FD360000552100006521000075210000C7
S11300708521000095210000A5210000FD36000027
S1130080FD360000FD360000FD360000FD360000A0
S1130090FD3600000000000000000000FD360000F6
S11300A0FD360000FD360000FD360000FD36000080
S11300B00000000010B5064C2378002B07D1054B37
S11300C0002B02D0044800E000BF0123237010BDC0
S11300D0C4000020000000002C830000084B10B571
S11300E0002B03D00749084800E000BF0748036815
S11300F0002B00D110BD064B002BFBD09847F9E72D
S113010000000000C80000202C8300002C830000A5
S11301100000000070B50020084B98470500084C0B
S1130120FA218900A047074B186007492800A04717
S1130130064B18600522064B1A6070BD8D34000012
S11301400D6400000000002040420F000400002065
S113015010E000E030B5084B1C68084A00258021F7
S11301604902013807D3002CFBD054609560136812
S11301700B42FCD0F5E730BD0000002010E000E0A9
S1130180014B18687047C046E0000020024A13681B
S1130190013313607047C046E0000020F0B583B01F
S11301A001AC012565700027A77025702100172078
S11301B0064EB04780221204054B9A612770657081
S11301C021003720B04703B0F0BDC046751B0000C6
S11301D00044004170B504000E0015001820A30768
S11301E000D070BD72B6BFF35F8F00221B4B1A7034
S11301F02221494209301A4B98471A4B2A68DA607F
S11302005C609E601A7804210A431A701900012266
S11302104B781342FCD0134B5B785B070CD522213F
S113022049422120104B984701220C4B1A70BFF30E
S11302305F8F62B61020D4E70A4BDA682A60012483
S11302405C70222149422120074B9847034B1C70C4
S1130250BFF35F8F62B60020C3E7C04609000020E9
S11302605105000000200041F104000010B51E4AB1
S1130270D36904210B43D3611C4B2022FF321A8320
S11302801A7D0523D20701D4180010BD03781B0280
S1130290C022920013404178C901FF220A4013434F
S11302A0817849001E220A401343C27892048021B7
S11302B0C9020A40134302791204C02189020A4088
S11302C013430A4A536093685B035B0F084908248D
S11302D09C400C8093684B8043780B71138BDB0537
S11302E0DB0F1B01D0E7C046000400400040004182
S11302F0E400002030B50400224A108853884343A8
S11303008B4206D28022920118201F4BCB189342B5
S11303100ED81E4B5D688022D2022A435A602022E6
S1130320FF321A831B7DDB0703D4184B5D60052065
S113033030BD452C22D8A300154AD3589F46134BF1
S11303401B8BDB0503D5114B5D601020F0E789089A
S113035049000E4BD96103E0890849000B4BD96170
S1130360A52000020443094B1C80190001220B7DC7
S11303701342FCD0054B5D600020D9E7034B5D6060
S11303801720D5E7E400002000C07FFF00400041B3
S113039058760000F8B5254B1D885B886B431824FC
S11303A0834201D22000F8BD6B1E1842FAD1013CF1
S11303B09542F7D31E4B1B7D123CDB07F2D51D4C37
S11303C01B4B1C801D0001242B7D2342FCD02024C8
S11303D0FF34174B1C83002A22D0012305009D43C0
S11303E00023571E09E0CE187678360234432C8059
S11303F002339BB202359A4204D9CC5CBB42F2DB95
S1130400A4B2F4E7094B1B790024002BCAD13F2A7C
S1130410C8D8002201000420074B98470400C1E714
S1130420024B1B790024002BF3D0BBE7E40000202F
S11304300040004144A5FFFFF5020000134B1A8859
S11304405B8853431821834201D20800704792000D
S1130450013A1042F9D10E4B1B7D1339DB07F4D559
S11304600B4B2022FF321A8380084000D861094ACE
S11304701A80190001220B7D1342FCD0044B198B06
S11304801C200140481E81418900DEE7E400002071
S11304900040004102A5FFFF134B2022FF321A83C4
S11304A099684A03520F08239340037041800F4B0D
S11304B01B885B065B0F072B10D00622D21A04237D
S11304C093404360094B1B8807221340072B08D035
S11304D00722D21A042393408360704700234360A9
S11304E0F0E700238360F8E700400041004080000B
S11304F0C24317238A4201D01800704708330340CF
S1130500C004000E01280DD0002803D0022811D009
S11305101723F1E701229A4013008022D205536089
S11305200023E9E701229A4013008222D205536096
S11305300023E1E70548016A0122114301629A4060
S11305408423DB055A600023D6E7C046000400403C
S1130550C24317238A4201D018007047083303406E
S1130560C004000E01280DD0002803D0022811D0A9
S11305701723F1E701229A4013008022D205136069
S11305800023E9E701229A4013008222D205136076
S11305900023E1E70548016A0122114301629A4000
S11305A08423DB051A600023D6E7C046000400401C
S11305B0F8B5114B98470600104F114D0AE0002082
S11305C0A8470228FBD10C4B9847801BFA235B00F9
S11305D098420DD80020B84704000128EFD0064BFC
S11305E09847801BFA235B00984203D8002CF1D172
S11305F02000F8BD0124FBE781010000F91100008F
S1130600E50A000010B50400037C002B05D08368C4
S1130610581CE168074B9847A1606368581CE1685F
S1130620044B98476160A368591A4A424A412274AC
S113063010BDC0461965000070B505000C001420FB
S1130640044B98470560C4600023436083600374CF
S113065070BDC0469567000010B5036842689954A0
S1130660014B984710BDC04605060000027C0023DC
S1130670002A05D1436880681B1A58424341DBB203
S11306801800704770B504000D000A4B9847002805
S11306900DD12368A2689B5C2B7000232374A3688C
S11306A0581CE168044B9847A160002070BD0120EC
S11306B04042FBE76D0600001965000070B582B08A
S11306C005000E0000226B46DA80064C6B46991D2D
S11306D02800A0470028F9D16B4606331B883370E5
S11306E002B070BD652C000070B505008CB2034EDD
S11306F021002800B0470028FAD170BD392C000031
S113070010B5064B18680649064B9847431C04D09D
S1130710012203490448054B984710BD1C0A0020D8
S1130720180A002085060000DC010020792D000055
S113073070B590B08025ED0029003F483F4CA0479C
S11307403F4B186029003F48A0473F4B1860802367
S1130750DB05009300230193FF2269460A810022EE
S11307608B72CB72012124206C4621540130215418
S113077025316354013163540A93053163540131C3
S1130780635405932382E3762276227762761323D9
S1130790A3766277E1235B020893C4239B0303934C
S11307A001235B420C930D93284B0E93284B0F931C
S11307B0284D294C6A4629492800A0470028F9D128
S11307C0244D274B1D60274A274B1A60274A284B84
S11307D01A60284E336898680021274CA047336874
S11307E058680021A0472C682000244B98471F23F9
S11307F018401E3B8340224A13602A68D369002BA9
S1130800FCD12368022213432360124C00221D49A9
S113081020001D4DA84701221C492000A847312271
S1130820A35C03210B43A354303A19492000194B0C
S1130830984710B070BDC046180600203906000065
S113084010020020180200201C0A002003002A00C5
S113085003002B00DC010020F528000000180042F2
S1130860480A0020E9060000440A0020BD060000F2
S1130870400A0020600000202D69000025210000AE
S113088000E100E001070000612D000045090000BF
S113089014020020992D000070B50A4D2C68200028
S11308A0094B98471F2318401E3B83408022074969
S11308B08B502A68D369002BFCD12368022293430E
S11308C0236070BDDC0100202521000000E100E070
S11308D0F0B5C64600B505000024002812D0114E1C
S11308E0114F124B984603E0295D3868C047013424
S11308F02800B0478442F7D301210D480D4B984797
S1130900002802D004BC9046F0BD0B4C064B18687E
S113091021000A4B9847012221000548084B9847BB
S1130920F0E7C046FD6A00001C0A002059060000DA
S1130930DC010020B92D0000180A00208506000003
S1130940792D000010B582B00D4C20000D4B984756
S11309502378082B0CD00A4C21780B4B18680B4BCE
S11309609847012221000A480A4B984702B010BD5B
S113097001A818330370183B4370024B9847EAE709
S113098014020020D10800001002002059060000C3
S1130990DC010020992D00000EB403B07047000064
S11309A010B5064B19688B7F5A1E9341DBB24A7B04
S11309B0096803480078034CA04710BDEC000020F0
S11309C0140100205D16000010B50423002801D096
S11309D0180010BD0E4B9B7A033B012B0DD900224E
S11309E00C4B1A700A4C0C4B1C600C4B9847A37AA6
S11309F0023B58424341DBB2EAE7054B02229A72BA
S1130A00074A1A6001225A7300229A77E7E7C04620
S1130A10F000002014010020EC000020A1090000D7
S1130A20801A0600F8B5094D094F0A4E00210A48FC
S1130A30B847041E07D0B047FF23034203D0013D4B
S1130A40002DF3D100242000F8BDC046410D030061
S1130A50A1180000B91800000D1B000010B582B0E9
S1130A600C4B1B68198909040123009310220A48BE
S1130A700A4CA047002801D102B010BD054B1868EC
S1130A800E300121064B98470028F5D0054B9847B6
S1130A90F2E7C046EC00002009110800111700001D
S1130AA03D190000C919000010B5044B1B78002B38
S1130AB000D010BD0020024B9847FAE71401002033
S1130AC0B116000010B50422034B9A72FB32034B9B
S1130AD01A70034B984710BDF00000201401002049
S1130AE05D150000F0B5C64600B588B0CB4B9847FD
S1130AF00400012806D0CA4B9847200008B004BC63
S1130B009046F0BDC74B1B680122DA7200221A73AB
S1130B101A81C54B9847002188204001C34B984750
S1130B20002807D1BF4B1B6803229A72BC4B98471D
S1130B300324E2E7D5214900BD48BC4B9847002671
S1130B40002825D1B74B1B68DB7ADB0700D5EBE126
S1130B50B44B1B68DA7A09231340012B0FD180218F
S1130B608900B448B14B98470028DBD0AD4B1B68D3
S1130B70DB7ADB0703D5B04B98470028D2D0AF4BC4
S1130B809847A84B1B6800229A72A54B9847B4E774
S1130B90AB4B9847431C00D1C4E10005000DD5239D
S1130BA05B0001369842BDD1CCE70021A5489F4B9C
S1130BB09847002819D19B4B1B680222DA72002146
S1130BC088204001994B98470028ABD09E4D974F01
S1130BD09B4E00219D48B8470028A3D0B047C307C7
S1130BE07DD5013D002DF4D19CE7954B98474300FA
S1130BF005D58C4B1A68D37A08210B43D372002194
S1130C0093488A4B984700288CD0864B1B68DB7A24
S1130C10DA0700D4A4E18F4B9847002882D0814B97
S1130C201A68537C0721194089008B480858FA2117
S1130C30890041435B061B0F9B0088481B584B43AC
S1130C401360937B9B0900D03CE1917D8911537D16
S1130C509B00107D800203430B43107EC011D17DA5
S1130C60490008431B051B0D0133072101400231D4
S1130C708B40D07C0F2101408B409B0A536011892B
S1130C8009047748694B9847002800D14AE70123B3
S1130C900093082200217348734DA847002800D10F
S1130CA040E7012106A8714B9847002800D139E795
S1130CB06F4B9847002800D134E706AB1B780F220E
S1130CC01340012B00D119E1002B00D109E1022BC3
S1130CD000D118E1534B1B6810221A7305E100215F
S1130CE05848524B9847002800D11BE7544B98476B
S1130CF0C023DB0518408023DB05984205D1494B0E
S1130D001A68D17A08230B43D37200215048474B09
S1130D109847002800D105E74E4B9847002800D19A
S1130D2000E7404B1A68937B9B061B0F022B00D1F4
S1130D30A8E007D9032B00D1A7E0042B04D140235A
S1130D40137303E0012B66D012231373537C5906EB
S1130D50090F8900072003409B003F481858FA23D5
S1130D609B004343434809584B431360917D8911C9
S1130D70537D9B00107D800203430B431B051B0D19
S1130D803D498B420FD0107EC011D17D49000143F3
S1130D9001330720014002318B40D17C08300140EF
S1130DA08B409B0A5360137B3F2B7BD9002100911E
S1130DB001238022920031482B4DA847002800D1FE
S1130DC0B0E600252E4E05A8B047002800D1A9E6BC
S1130DD00135ADB2322DF6D1124B19688A7D9211CC
S1130DE04B7D9B00097D89020B4313431B051B0D9F
S1130DF0214A934254D1224E06A8B047002800D17C
S1130E0090E60135ADB2352DF6D9064B1A68069B2E
S1130E105B08536044E01423137397E7C909000087
S1130E20A90A0000EC000020D9160000A118000057
S1130E300855000010110000250A0000A109000057
S1130E40B91800003A050000EF1B00000111000072
S1130E503B1100005D0A0000B0770000CC77000071
S1130E603711000033110800111700003D1900006C
S1130E70C919000070770000FF0F00000811080076
S1130E80C51800002223137360E7302313735DE752
S1130E9006A8364B9847002800D143E60135ADB289
S1130EA07F2DF5D9802189003148324B984700289D
S1130EB000D137E6304B9847002800D132E62F4B5B
S1130EC098475EE6D07D937D1B02517D09040B4358
S1130ED003439B025B08802189008C466344536072
S1130EE0CDE6274B1B6810221A73254B1B68DB7A4F
S1130EF009221340012B00D038E630E6204B1B6852
S1130F001A221A73F1E706AB9B78DB09012B04D193
S1130F101B4B1B6830221A73E7E7194B1B6820220E
S1130F201A73E2E700260DE6731E9E41B30703938E
S1130F30144D104FB846144E00211448B8470028E9
S1130F4000D138E603991248C047002800D132E6A0
S1130F50B047C30700D428E6013D002DECD12AE6B2
S1130F6009221340012B00D009E6F8E5C51800005A
S1130F7010110000A1180000250A0000A1090000BA
S1130F80EC000020EF1B0000B9180000371100002E
S1130F902911000010B5064B98470023002801D002
S1130FA0180010BD034B9847034B1B68DB7AF7E727
S1130FB0C9090000A90A0000EC00002010B5064B86
S1130FC098470023002801D0180010BD034B984710
S1130FD0034B1B685B68F7E7C9090000A90A000016
S1130FE0EC0000200020704770B582B00E001500A0
S1130FF0164B9847041E02D0200002B070BD144B5B
S11310009847002817D0012D19D91248124B1B6894
S1131010DB7A1B0700D47602012300932B00802285
S1131020920031000D4EB04700280AD00C4B1D80B1
S11310300C4B1D80E0E70C4B98470534DCE70B486C
S1131040E4E7094B98470524D6E7C046C9090000E0
S1131050250A000012111000EC00002011170000F6
S11310601001002012010020A90A0000111108003B
S113107010B50C00074B9847002804D10022064BFA
S11310801A80053010BD044A13881C1B14800020EC
S1131090F8E7C0463D1900001001002010B5040017
S11310A0144B98470523002801D1180010BD002CCB
S11310B010D00022104B1A80104B1B88012B0FD02C
S11310C000210F480F4B984700280DD00E4B98472E
S11310D00023EAE7084B1A880023002AECD0E4E74F
S11310E0094B98470023E0E700210548054B984742
S11310F0ECE7C046C91900001001002012010020CD
S11311000C310000A1180000A90A000070B582B0DB
S11311100E001500114B9847041E16D1012D17D946
S11311200F48104B1B68DB7A1B0700D4760201239F
S113113000932B008022920031000B4EB047002810
S113114008D00A4B1D800A4B1D80200002B070BDE0
S11311500848E6E7084B98470524F6E7C909000064
S113116019911000EC00002011170000100100205C
S11311701201002018910800A90A000010B50C0003
S1131180074B9847002804D10022064B1A800530EB
S113119010BD044A13881C1B14800020F8E7C046C5
S11311A0CD1900001001002010B504000E4B984723
S11311B00523002801D1180010BD002C0AD00022FC
S11311C00A4B1A800A4B1B88012B09D0094B9847FC
S11311D00023F0E7054B1A880023002AF2D0EAE73F
S11311E0044B98470023E6E74D1A00001001002045
S11311F012010020A90A000010B504000F4B984703
S1131200012819D0002803D0022810D0012010BDD5
S11312100B4B1B5D0220002BF9D12000094B984792
S1131220030003201840434258414000EFE70022E6
S1131230034B1A550220EAE70320E8E7E50A000019
S113124018010020950F000010B50020014B9847AD
S113125010BDC046F911000070B504000D00044B28
S113126098474000013828602000024B984770BD21
S1131270BD0F0000F911000010B501000020014B62
S1131280984710BD5912000010B50020014B984733
S113129010BDC046E50F000010B5140001220C4B30
S11312A09847002804D0023843425841013010BD09
S11312B001212000074B984703000120002BF6D1A1
S11312C00020054B9847431E9841C0B2EFE7C04643
S11312D0E90F0000711000009D10000010B50A0015
S11312E001000020014B984710BDC0469912000030
S11312F010B5140001220C4B9847002804D0023882
S113130043425841013010BD01212000074B98474A
S113131003000120002BF6D10020054B9847431E03
S11313209841C0B2EFE7C0460D1100007D110000E6
S1131330A911000010B50A0001000020014B9847D4
S113134010BDC046F112000000B583B06B46D91D34
S1131350FF230B7001220B480B4B98470B4B1B8848
S1131360012B0AD0FC226B469A7101226B46991D0F
S11313700448054B984703B000BDFE226B469A71A2
S1131380F3E7C0461C01002059260000600100203C
S1131390F0B583B06B46DC1DFF232370124E01228F
S11313A021003000114DA847FF2301222100300005
S11313B0A847FF23012221003000A8470C4C6B46AC
S11313C0DD1D094E094F2B78FF2B09D0FF23012285
S11313D029003000B847013C002CF4D1002000E083
S11313E0012003B0F0BDC0461C0100209124000080
S11313F0400D030070B582B0144B1C88012C23D01F
S1131400134B1988134B1868134B984701238442D4
S113141002D9180002B070BD6B46DC1DFF23237097
S11314200E4E0122210030000D4DA847FD232370EC
S1131430012221003000A8470A4B9847031EE8D137
S11314400521094A1170E4E70123E2E76001002065
S113145058010020680100200D6400001C010020D8
S113146059260000911300005F010020F0B583B0FD
S113147000226B46DA71144C6B46DD1D134E144F7B
S1131480FF23012229003000B8472B780F221900CE
S113149091430A1E09D0FE2B13D0013C002CEFD13E
S11314A004220C4B1A7000200CE05B0704D00732B6
S11314B0084B1A70002005E00B22064B1A7000201E
S11314C000E0012003B0F0BD20A107001C010020B2
S11314D0912400005F01002030B583B001A90123ED
S11314E05B420B80144D02222800144B98476B4634
S11314F0DC1DFF23012221002800114DA84722787A
S113150011231340012B05D001220E4B1A70002029
S113151003B030BD1E231A40042A0BD00A2A04D17A
S1131520023A084B1A700020F2E70A22054B1A709F
S11315300020EDE70120EBE71C0100205926000004
S1131540912400005F01002010B50248024B984727
S113155010BDC0461C010020B521000070B590B03C
S113156000232D4A137002AC0125257003930493C4
S113157023746374A574E57423752422A354183A60
S1131580002108A8254B984780235B02E360244B85
S1131590A362244BE362244B2363244B6363244BF5
S11315A0A361244E220024493000244B9847346818
S11315B02000234B98471F2318408540214B1D6072
S11315C03268D369002BFCD12368022213432360C1
S11315D01D4A0023537093701C49087810701C4CEA
S11315E020706370A37001A901224A708B700A7085
S11315F0184B98472278D1090023002904D15309B4
S1131600DB0115498C4663441F21114001228A40A5
S11316109A6110B070BDC0465F010020A967000048
S11316200200100002001100020012000200130068
S1131630801A06001C010020000C0042B9220000A0
S11316402521000000E100E06C01002008000020DA
S11316505C010020751B000000440041F8B5070040
S113166000220D4B1A700C000C4B994200D91C003F
S11316700B4D0C4E01E0E308E41A21002800B047AA
S11316801728F8D07900CF190749C919012204484D
S1131690064B9847F8BDC0465F010020809698002D
S11316A01C010020012200005C01002065250000CF
S11316B010B50022044B1A70410008180349091898
S11316C00348044B984710BD5F0100205C010020D3
S11316D01C0100206525000070B582B0FF226B4616
S11316E0DA710022074B1A700A24074E074D0122B3
S11316F06B46D91D3000A847013CE4B2002CF6D15A
S113170002B070BD5F0100201C01002059260000BA
S1131710F0B5C64600B586B0804600920193FF221C
S11317200F2302A8844663441A700022534B1A7094
S113173004AB3F3240460240402002431A700A0E76
S11317405A700A0C9A700A0ADA7019710027002379
S113175004A90822092411E07600F6B20138C0B2C7
S1131760002808D05B00DBB21D0075402D06F3D5C0
S11317706340DBB2F0E70137052F02D07E5C100036
S1131780F0E75B000122134304AC63713C4E012279
S11317900F2102AB9C46614430003A4FB847062201
S11317A021003000B84702ABD91DFF230B70012282
S11317B03000354EB047072402ABDE1D304F324DAA
S11317C0FF23012231003800A84733785AB2002A97
S11317D00BDA013CE4B2002CF2D10222274B1A703E
S11317E0002006B004BC9046F0BD284A13601A07D6
S11317F01AD45A071DD4012293431FD143469B0494
S113180020D443469B0525D443465B052BD4204B6B
S11318106A4612881A801F4B6A4692881A800022F0
S11318201D4B1A600120DCE70622144B1A700020BD
S1131830D7E70922114B1A700020D2E70F4B1A7018
S11318400020CEE7154B98470028DAD103220B4B32
S11318501A70C6E70D4900230B60FF3301220848C4
S1131860094EB047D0E7094EFF2304223100044853
S1131870054FB84733681BBA3360C8E75F010020DF
S11318801C0100205926000091240000640100205E
S1131890580100206001002068010020911300001D
S11318A010B582B0002300930022024CA04702B07E
S11318B010BDC04611170000014B18687047C046A0
S11318C06401002010B584B001900022144B1A70FA
S11318D0144B1988144B1868144B9847002903D1EA
S11318E0134B9847002810D0FF23042201A9114864
S11318F0114CA0470C4B1A68101D1860094B19882D
S11319000A4B98470120002901D004B010BDFF23E1
S1131910022203A90748084CA0470120F5E7C04666
S11319205F010020580100206801002019650000B3
S11319306D1400001C01002091240000F0B5DE4667
S113194057464646C0B582B083460022174B1A70EC
S11319504C1EA4B2002926D00026154B9A46154FDA
S1131960D0478046002817D03A885B469919FF2350
S11319701148124DA8473B88F618114A11688C4645
S113198063441360FF23022201A90B48A847013CCA
S1131990A4B20C4B9C42E3D1404602B01CBC90461E
S11319A09A46A346F0BD01239846F5E75F0100205F
S11319B06D140000580100201C0100209124000037
S11319C068010020FFFF000001207047F0B5C64603
S11319D000B580460022154B1A700025144F154E91
S11319E000E021004C1EA4B200291BD0B847328865
S11319F0434659191048114B98473388ED18104A3B
S1131A0011688C46634413600E4B984700280AD033
S1131A10002CE6D00C4B98470028E2D10522034B5A
S1131A201A7000E0012004BC9046F0BD5F01002064
S1131A3049130000580100201C0100205926000011
S1131A4068010020D91400009113000010B5054B63
S1131A509847002803D10522034B1A7010BD034B8D
S1131A609847FBE7911300005F010020F513000085
S1131A7010B50123002801D0180010BD014B984770
S1131A800300F9E74912000010B50123002801D032
S1131A90180010BD0800024B98470300F8E7C04641
S1131AA07912000043425841C0B2704710B5012377
S1131AB0002801D0180010BD014B98470300F9E736
S1131AC08912000010B50C000123002801D0180071
S1131AD010BD11002000024B98470300F7E7C046F1
S1131AE0DD12000010B50C000123002801D01800FD
S1131AF010BD11002000024B98470300F7E7C046D1
S1131B00351300000C4B1B68002B06D1EFF3108338
S1131B10002B07D00022094B1A70074A13680133BF
S1131B201360704772B6BFF35F8F0022044B1A70C4
S1131B300132024B1A70F0E770010020740100209A
S1131B4009000020084B1A68013A1A601B68002B30
S1131B5009D1064B1B78002B05D00122044B1A70C7
S1131B60BFF35F8F62B670477001002074010020DC
S1131B700900002000B583B001AB80221A700A78F6
S1131B805A704A789A708A78DA701900014B98472B
S1131B9003B000BD9D3600000268937A5BB2002B4F
S1131BA0FBDB138802210B43138070470268937A8E
S1131BB05BB2002BFBDBC1239371137213880221E8
S1131BC08B4313807047000070B504000568064B12
S1131BD098472268937A5BB2002BFBDB2B880122A7
S1131BE013432B8070BDC046AD1B000010B5CB88DD
S1131BF0C2889A1A92064B799B050C796404234394
S1131C008C782403234313430279002A05D1CA782C
S1131C10002A02D0802252021343487880010A78B5
S1131C201043184310BD10B58B0EC4881B19D38004
S1131C308B011B0F53718B02DB0E13710379002B85
S1131C400CD10B041B0F9370CB03DB0FD3708809EB
S1131C503F23184050701940117010BDCB03DB0EA8
S1131C609370F4E710B50A0003684179002906D09F
S1131C70598849040BD519690A4B984710BD0A497C
S1131C8059800468A17A49B20029FBDBF3E759883B
S1131C90C0242402214359800468A17A49B200294E
S1131CA0FBDBE8E7271C00000080FFFF70B50D0098
S1131CB014001723012A01D9180070BD0668064BC9
S1131CC09847B37A5BB2002BFBDBE4003419A061C4
S1131CD02B7A23770023EFE7ED1B000030B583B0A8
S1131CE00500140001601C4A936920210B43936191
S1131CF001A902230B700420184B98470420184BA9
S1131D0098472800174B984723792B71E3786B7118
S1131D10E388EB80144B1D602A682388217900290D
S1131D2017D008210B43A178002901D080210B434F
S1131D301380E378002B04D053888021C9010B431E
S1131D4053802100083100222800084B984703B033
S1131D5030BD48210B43E6E700040040A5350000F0
S1131D6019350000C91B0000200A0020AD1C00002A
S1131D70F0B5DE4657464E464546E0B587B0804648
S1131D80049116001F000022002300218B463F24EB
S1131D9001202100009601975C4603944446059473
S1131DA013E02024641A0500E540A84614E0009CD2
S1131DB0019D121BAB415C464D462C43A346039C3C
S1131DC045462C430394013925D3202464420C193D
S1131DD0E7D40500A540A84604008C40A14692180B
S1131DE05B4114001D00059E4F463E40B446049ED0
S1131DF047463E40B246664657463E4303D0060039
S1131E00264332002B00009C019D9D42DBD8CED19D
S1131E109442D8D8CBE7039B5846190007B03CBC82
S1131E2090469946A246AB46F0BD10B549084023FA
S1131E300024814202D2180010BD1C00091A631C40
S1131E409BB28842F9D94023FF2CF4D81480002394
S1131E50F1E70000F0B583B00F00160008AA11786E
S1131E6004004C434022BC4202D9100003B0F0BD30
S1131E70002B14D1020008000021194CA0470100D6
S1131E803A0000230020174CA04700220123121A15
S1131E908B41120C1B041A4332800022E5E7002216
S1131EA0012BF9D10A00002300210D4CA0470200A8
S1131EB00B0000920193380000210A4CA047050052
S1131EC080239B0140229842CFD8790FF800009AD2
S1131ED0019BA047EA00821AD2B252032A43DBE7ED
S1131EE0F9660000711D000010B582B004000E4BAD
S1131EF01B78002B07D0002905D10B4B5B7883425C
S1131F0010D01D200CE001A90C701320074B98473A
S1131F101320074B9847044B5C7001221A70002071
S1131F2002B010BD0020FBE778010020A5350000B9
S1131F3019350000404B984231D00AD93F4B9842A2
S1131F404DD03F4B98425AD03E4B984237D0002058
S1131F5070473D4B98420CD03C4B9842F7D1012935
S1131F6017D000295DD0022915D0032915D00020EF
S1131F70EEE7012907D0002951D0022905D0032911
S1131F8005D00020E4E73248E2E73248E0E732488F
S1131F90DEE73248DCE73248DAE73248D8E701299D
S1131FA007D000293FD0022905D0032905D00020FD
S1131FB0CEE72D48CCE72D48CAE72D48C8E70129CC
S1131FC007D0002931D0022905D0032905D00020EB
S1131FD0BEE72848BCE72848BAE72848B8E70129FB
S1131FE007D0002923D0022905D0032905D00020D9
S1131FF0AEE72348ACE72348AAE72348A8E701292A
S113200007D0002915D0022905D0032905D00020C6
S11320109EE71E489CE71E489AE71E4898E71E481C
S113202096E7032094E71D4892E71D4890E71D4872
S11320308EE71D488CE7C04600100042001800429D
S1132040001C00420014004200080042000C004240
S1132050030005000300060003000700030001005D
S113206003001E0003001F000300090003000A0010
S113207003000B000300110003001200030013000F
S113208003000D0003000E0003000F0003001700FF
S113209003001800030019000300040003000800F3
S11320A00300100003000C000300160030B587B0D5
S11320B00B4B6A4632CB32C232CB32C2009B8342D4
S11320C00BD001239A0069465258824206D001334C
S11320D0062BF7D1002007B030BD0023D8B2FAE7B1
S11320E00C78000070470000F0B50A4B1B78002BF9
S11320F00CD1094F094E0A4D0024DE515A191460BF
S11321000433182BF9D10122024B1A708000024BC0
S1132110C150F0BD7A0100207C010020E5200000C0
S1132120240A002000B583B009236A4613700133E2
S11321305370013393700133D3700133137101333E
S11321405371034B98476B46185603B000BDC04605
S1132150AD20000010B5024B1B680020984710BD4D
S11321607C01002010B5024B5B680120984710BD2C
S11321707C01002010B5024B9B680220984710BDDB
S11321807C01002010B5024BDB680320984710BD8A
S11321907C01002010B5024B1B690420984710BD38
S11321A07C01002010B5024B5B690520984710BDE7
S11321B07C01002070B50500046820000E4B984790
S11321C01F2318401E3B834080220C498B502A68F1
S11321D0D369002BFCD18F33237523762368022225
S11321E0934323602A68D369002BFCD1236801221E
S11321F01343236070BDC0462521000000E100E0C8
S113220070B582B005000C0000226B46DA800668C7
S11322103000244B98471F2318401E3B83408022E4
S113222021498B502A68D369002BFCD18F33337535
S1132230337633680222934333602868C369002BE2
S1132240FCD11A4B98471430C0B2194B984701007F
S11322506B469A1D2000174B9847041E03D0172481
S1132260200002B070BD6B4606331B7833732E68B2
S1132270F369002BFCD130000A4B98471F23184008
S11322801E3B8340084A13602A68D369002BFCD1A3
S113229033680222134333602A68D369002BFCD1CC
S11322A0DEE7C0462521000000E100E0AD2000008B
S11322B0C13500002B1E0000F0B58BB005000C00EA
S11322C0160029600B681C209B0701D50BB0F0BDDC
S11322D00B681738DB07F9D40800604B9847604A4D
S11322E0116A871C0123BB400B43136209A92427ED
S11322F0F35D0B701430C3B201931800594B984727
S11323000198594B9847F05D0021584B9847337812
S1132310012B38D02B000C3329002831002204C3B0
S11323208B42FCD10023EB62AB620024AB862B868C
S11323303633EC540133EC540133EC54353B6B72BB
S11323402C712868454B984707004949494B9847E1
S1132350BF00494BFD502F6804AB80221A705C709B
S11323607F3A9A70DC703378002B02D1002204ABE0
S11323709A70B36A0593F36A0693336B0793736B8E
S1132380089300240BE023680C2213432360C1E765
S113239038003A4B98470AE00134042C10D0E1B2DB
S11323A0A30002AA0C201218D0580028F0D0431C15
S11323B0F2D004A90870000CC0B2314B9847EBE787
S11323C033786B71337CAB71B37CEB71337D2B72DF
S11323D0002202ABDA803378012B28D07368B2680C
S11323E01343F2681343317C727C002A03D1254ADB
S11323F09278920701D580221343B27C002A02D03E
S1132400802292021143F27C002A02D080229200A0
S11324101143327D002A02D08022920111433A688E
S113242013433B607B680B437B6000204EE72868C6
S11324300A4B98471430C0B2134B9847010002ABC3
S11324409A1DB069114B984703001720002B00D048
S11324503CE702AB06331B783B73BFE7AD200000BB
S113246000040040A535000019350000E91E0000F5
S113247025270000E9200000240A0020351F000061
S11324809D36000000200041C13500002B1E0000D5
S1132490F0B5D646474680B583B03824055D333C55
S11324A0052D02D01234002A05D1200003B00CBC43
S11324B090469A46F0BDC479002C44D11C34F4E70C
S11324C005682C7E3C42FCD02C7E3C421AD044460B
S11324D0AC6217E08479012C26D0AD6AECB2A44634
S11324E0019C002C3AD1751CADB264468C5584799C
S11324F0012C1ED02E00013A92B252451FD04479CD
S1132500012CDDD005682C7E1C42FCD02C7E1C42A4
S113251017D06C8BA4460024019464461C42D9D085
S11325206B831E240194D5E7AC6AE405E40DA4464C
S1132530D6E70236B6B26446240A4C55DBE7019C62
S1132540B3E71024B1E7013A92B200260127DB0574
S1132550DB0D98460423024CA246D0E7019CA4E775
S1132560FFFF000010B544791523012C01D0180099
S113257010BD047A0023002CF9D1002A58D04B78DE
S1132580002B44D003681B7EDB0710D40A78D109E2
S11325900023002904D15309DB012E498C466344EE
S11325A01F21114001228A409A610523DFE70A783E
S11325B0D4090023002C04D15309DB01254CA44683
S11325C063441F2414400122A2405A6103681A7E06
S11325D0D20701D58A789A62C2790023002AC6D12B
S11325E002680421137E0B42FCD0117E00234907AC
S11325F0BDD5538B5B0701D5042353838379012B0A
S113260002D0936A0023B2E7936A0023AFE70A7803
S1132610D1090023002904D15309DB010D498C465B
S113262063441F21114001228A405A6100239EE71E
S11326300A78D1090023002904D15309DB01054993
S11326408C4663441F21114001228A409A61002371
S11326508DE7C04600440041F0B5DE4657464E467D
S11326604546E0B583B08A463823C45C333B052C29
S113267002D01233002A4BD1180003B03CBC904660
S11326809946A246AB46F0BD0237BFB24146534617
S1132690595C09025B460B4318E08379012B2AD06D
S11326A0936A013EB6B2664527D00268137E234280
S11326B0FCD07B1C9BB298465346DB5D9B468179DC
S11326C00129E1D06946CB80CB884746117E21425F
S11326D002D0DB05DB0D9362C379002BE1D00268E5
S11326E0137E2B42FCD0137E2B42DAD0538B2B4229
S11326F0D3D05583D1E7936AD3E742790023012AE3
S1132700BAD1016801320B7E1342FCD00023B3E737
S1132710013A96B2002701240425014B9C46C4E7E4
S1132720FFFF0000F8B58000704BC45826683723BB
S1132730E75C3622A25C1740337EB57D1D40EB0773
S113274002D56379012B1ED06B0711D5738B5B0700
S11327505AD5637A012B08D01E223823E254353B24
S11327606372023333753B074AD4B36A0423738319
S1132770AB0703D56379012B00D197E06DB2002D2F
S113278000DAA9E0F8BD637A002B22D0637A002B2B
S1132790DAD02168E26A1378DBB2501CE062A079D7
S11327A0012827D09BB2DB05DB0D8B62A38E013B96
S11327B09BB2A386A38E9BB2002BC5D10133337584
S11327C0637A012BC0D1E379002BBDD10233B375F9
S11327D0BAE7474B1B88B362638E013B9BB26386A7
S11327E0638E9BB2002B01D1013333756379012BC6
S11327F0CCD0A9E75078000203430232E262D2E768
S11328002000A3699847B0E7637A012B28D0236896
S11328109B6ADB05DB0DDAB2A16A0A70A26A511C5D
S1132820A162A179012934D0238E013B9BB2238676
S1132830238E9BB2002B00D09AE700223833E25457
S1132840343B3375637A022B29D0637A002B00D092
S11328508EE7BB0700D48BE720002369984787E7FE
S113286023689B6A638E013B9BB26386638E9BB233
S1132870002B00D07CE70433337500223433E25458
S1132880353B6372FB0700D472E72000E368984786
S11328906EE71B0A5370A36A0133A362C4E77B0784
S11328A000D465E720006369984761E7637A012BE8
S11328B000D063E7E379002B00D05FE70233337580
S11328C00133637200223533E254FB0700D455E729
S11328D02000E368984751E78023337533767B06FD
S11328E000D44FE7636A200098474BE7240A00208E
S11328F03C0A0020F0B5DE4657464E464546E0B554
S113290091B005000C00160029600800BC4B9847E4
S1132910020023680520DB0706D511B03CBC9046B5
S11329209946A246AB46F0BD236817309B07F4D402
S1132930B449086A971C0123BB4003430B620FA9E7
S11329402D27F35D0B701432D3B202931800AE4BF3
S113295098470298AD4B9847F05D0021AC4B9847DF
S1132960F37A6B712423F35CAB712523F35CEB7175
S1132970F37E2B72337F6B722B6898461800A04B42
S11329809847143000220E2306A98C4663441A800B
S1132990328A02928023DB019A4200D19EE00FD951
S11329A0C023DB01029A9A4200D192E080231B02E9
S11329B09A4200D01FE1032306930023079308E003
S11329C080239B019A4200D015E1102306930F3B0C
S11329D0079333680593F368039373690493337E11
S11329E09B462623F35C9A4673689946002B00D1D4
S11329F0A0E080235B05994500D184E0737E002B21
S1132A0002D0B37E424693732A68029FD369002B97
S1132A10FCD10E3306AA944663441B884246938134
S1132A20059B039A1343049A13434A4613431F43D3
S1132A305B461B021F4353465B071F432723F35C7C
S1132A40002B01D104331F43737E9B02327F520259
S1132A501343727F120213432422B25C52041343C1
S1132A602522B25C12041343B17AF27A114319435A
S1132A703389FF2B00D181E080225204174319438C
S1132A802C23F35C002B03D1624B9B789B0701D56D
S1132A9080231F432A68D369002BFCD14346596025
S1132AA02A68D369002BFCD143461F600EAB8022F9
S1132AB01A7000225A70DA709A70336B0A93736B2F
S1132AC00B93B36B0C93F36B02930D9300270AAE35
S1132AD063E008230693073B07937AE7336805937B
S1132AE0F368039373690493337E9B462623F35C54
S1132AF09A4673689946002B18D080235B05994544
S1132B0001D0002025E02723F35C002B00D075E7DB
S1132B10336A1F00C0B2404B984701000E2206AB37
S1132B209C46624438003D4B984712E008230693C4
S1132B30002307932723F35C002B0ED0069B0093FE
S1132B40079B0E2206A98C466244B16A306A344F50
S1132B50B847002800D0E0E650E7336A1F00C0B24F
S1132B602D4B98470100069B0093079B0E2206A855
S1132B708446624438002A4FB847EAE7F37E002BC4
S1132B8000D17DE78023DB041F4379E72000254B38
S1132B90984707E00137042F0DD0F9B2BB009859CC
S1132BA00028F3D0431CF5D00EA90870000CC0B265
S1132BB01D4B9847EEE70023EB602B616B61AB6123
S1132BC0EB612B62AB626B620022EB85AB85303329
S1132BD0EA540133EA540133EA540133EA542868CD
S1132BE0074B984704001149114B9847A400114B17
S1132BF0E550002091E61023069300230793E8E6AE
S1132C00AD20000000040040A53500001935000087
S1132C10E91E000000200041C13500002B1E000009
S1132C20551E0000351F00009D360000D52D000004
S1132C30E9200000240A0020C2791C23002A01D1C3
S1132C4018007047C28D92B2173B002AF8D103686E
S1132C50DA69002AFCD1198502211A7E0A42FCD0C5
S1132C600023EDE782791C23002A01D11800704764
S1132C70828D92B2173B002AF8D10268107E400779
S1132C80F4D5D369002BFCD1538BDBB298061DD04D
S1132C90980703D5022353831833E7E7580703D56E
S1132CA0042353831A33E1E7D80703D5012353835D
S1132CB01233DBE7D80603D5102353833233D5E729
S1132CC09B0603D5202353832133CFE7138D0B8039
S1132CD00023CBE7F8B506000C00150007680A4B83
S1132CE09847F38D9BB2002B03D0084B98470520DF
S1132CF0F8BDF585054B9847B46205223323F25499
S1132D00323BBB750020F3E7051B0000451B0000A8
S1132D10F8B504000D00160007680F4B9847A38D03
S1132D209BB2002B03D00D4B98470520F8BDA68518
S1132D300A4B9847656205223223E2542E3BBB7549
S1132D40237A002B01D02023BB75637A0020002B4B
S1132D50ECD00823BB75E9E7051B0000451B000008
S1132D60931C9B00C31859603021012393401A001F
S1132D70435C13434354704710B51723002A01D111
S1132D80180010BDC4790533002CF9D0014B9847C5
S1132D900300F5E7D52C000010B51723002A01D154
S1132DA0180010BD84790533002CF9D0014B9847E5
S1132DB00300F5E7112D0000002903D0012905D0F7
S1132DC0172002E03223C05CC0B270473323C05CDA
S1132DD0C0B2FAE7F8B58000624BC5582C68E369C5
S1132DE0002BFCD1237EA67D1E403023EB5C3122D8
S1132DF0AF5C1F40F30722D5EB8D9BB2002B1CD098
S1132E00AA6A1378DBB2511CA962697901290ED030
S1132E109BB2DB05DB0D2385EB8D013B9BB2EB8580
S1132E20002B0CD1013323750133A37507E05178CE
S1132E3009020B430232AA62EBE701232375B307AD
S1132E4006D50223237500223133EA54FB071AD432
S1132E50730765D5AB8D9BB2002B5FD0638BDBB260
S1132E601A0714D43F221340002B34D09A0711D5EB
S1132E701A223223EA54303B63837B0750D528005F
S1132E806B6998474CE02800EB689847E0E73722E5
S1132E901340E9E75A0705D51E223223EA542E3B94
S1132EA06383EAE7DA0705D513223223EA54313B78
S1132EB06383E2E7DA0605D542223223EA54223B51
S1132EC06383DAE720221A42D7D021323223EA542C
S1132ED0123B6383D1E7238DDB05DB0DDAB2696A2C
S1132EE00A706A6A511C69626979012910D0AB8D34
S1132EF0013B9BB2AB85002B12D104332375002216
S1132F002E33EA54BB070BD528002B69984707E0FA
S1132F101B0A53706B6A01336B62E8E70423237561
S1132F20F30604D5102323752376FB060ED4B306CB
S1132F3004D52023237523763B070BD4330704D50C
S1132F40082323752376BB0608D4F8BD2800EB6953
S1132F509847ECE72800AB699847EFE72B6A28000D
S1132F609847F2E7240A002010B5082803D8800007
S1132F701C4B1B589F46002032E01B4B18692FE066
S1132F801A4B1B6A9B059B0F1948D84028E0164B27
S1132F90586925E0144B1B6800209B0720D5134972
S1132FA01022CB681A42FCD00F4B1A68242313401A
S1132FB0042B01D00F4813E000200F4B98470A4B15
S1132FC09B681B041B0C58430AE05023074AD35C3C
S1132FD000205B0704D5044BD86801E08020000280
S1132FE010BDC04624780000940100200008004071
S1132FF000127A00006CDC02C135000070B50C4987
S11330000B6A0478857840780122104080014026BC
S1133010B34303432A40D201802083431343032252
S1133020224012020348034013430B6270BDC046A2
S113303000080040FFFCFFFFF0B5DE4657464E4651
S11330404546E0B50100264B9B469B8A45780078AF
S11330504242424191468878CA7894460A79904619
S11330604E7B0F7B8C7B8A681E494A6101214A464C
S113307092009146042293434A46134342460A402F
S1133080D2009046082293434246134362460A40C4
S113309012019446102293436246134308404001B0
S11330A02022934303430F40BF01402083433B430B
S11330B00E40F601403083433343793805402D02F6
S11330C0094803402B4321400903084803400B43AC
S11330D05A4693823CBC90469946A246AB46F0BD04
S11330E00008004094010020FFF8FFFFFFEFFFFFFE
S11330F010B5037A9B061B0C42899205920D13436B
S113310018494B608379C2791343428884882243E7
S113311013434278D20113430B600378042B11D07C
S1133120202B0ED1037B9B06028A1343C28912040F
S11331300D490A4013430B4A936011680B4B0B4330
S1133140136010BD037B9B06028A1343C2891204D9
S113315005490A401343034A9360136804210B434F
S11331601360EEE7940100200000FF032404000034
S1133170082803D88000254B1B589F46172044E09D
S1133180234A136A02210B43136200203DE0204AC4
S1133190936902210B439361002036E01C4A138A91
S11331A002210B43138200202FE0194A938A022143
S11331B00B439382002028E016490B680222134334
S11331C00B60134B9A8419000E32CB681A42FCD060
S11331D0104A91680E4BD96252689A6200229A840E
S11331E019001032CB681A42FCD00A4B1B689BB200
S11331F0074A9384002008E0054944228B5C02209E
S113320003438B54002000E00020704748780000FE
S11332100008004094010020F0B58FB0C222D20013
S1133220454B9A60454A53681E218B431A390B4318
S11332305360022201AB1A700024414DE0B201A98F
S1133240A8470134252CF9D10AA800230370837000
S1133250802212028260C3700122027183730621EC
S1133260417043730273374B98470520364B984798
S113327031490222CB681A42FCD005AB002100225E
S1133280598099809A71DA713F3159813B391970AB
S11332905A702E4B1B689B0E3F2B4BD005A8037214
S11332A0B723DB000382032303731C33C381284B3E
S11332B0984704A801258570002606704570254BA3
S11332C098470620204FB847234B984701AC0295F6
S11332D066702672667205232370210001201F4B3D
S11332E0984701201E4B9847257021000020144B5D
S11332F0984700201B4B98470720B8470E49D02217
S1133300CB681340D02BFBD1174A0023137253729E
S11333109372D37201A901224A604B704B72073336
S11333200B700A7200200D4B984700200C4B9847F5
S11333300FB0F0BD203BB1E7000800400040004161
S1133340A535000039300000713100002460800090
S1133350F1300000FD2F00006D33000091330000B8
S1133360493400001935000000040040064A9369FE
S113337008210B4393610122044B1A7019000B7846
S11333801342FCD17047C04600040040000C0040CA
S113339070B5060004000D782D0205434B78002B10
S11333A002D08023DB021D434B7A002B02D0802302
S11333B01B031D434868012810D9431E184234D109
S11333C0022830D90223002201325B009842FBD844
S11333D012023243140080235B031D430B7A002B3B
S11333E002D080239B031D43134A53785BB2002B06
S11333F0FBDB124B9847124B1E700F4A53785BB29B
S1133400002BFBDB0C4B9C601A0053785BB2002B47
S1133410FBDB094A5368802149020B401D43556078
S1133420084B984770BD0022D2E70402344380233E
S11334309B021D43D2E7C046000C0040051B000060
S1133440080C0040451B000010B504000B4A5378DB
S11334505BB2002BFBDB0A4B98470A4B1C70074AF4
S113346053785BB2002BFBDB044A516880235B0278
S11334700B435360044B984710BDC046000C0040FA
S1133480051B0000040C0040451B000070B504003F
S11334901A4A53785BB2002BFBDB194B9847194B44
S11334A01C70164A53785BB2002BFBDB134E70681A
S11334B0C004C00E144B98470500124B1C7076686C
S11334C0F602F60F114B1C700C4A53785BB2002BBA
S11334D0FBDB0A4B9C682402240C0D4B9847002EFE
S11334E007D1012C07D9210028000A4B9847050071
S11334F001E00134E540280070BDC046000C0040E6
S1133500051B0000040C0040692F0000080C00405B
S1133510451B00000D64000010B50400064B9847DD
S1133520064B1C70064A53888021C9010B43538003
S1133530044B984710BDC046051B0000020C004018
S1133540000C0040451B000010B504000F4B9847C9
S11335500F4B1C700F4A53881B05180F53880E49D4
S11335600B40538053880D490B4053801100802237
S1133570D2014B881342FCD106494A88030206480B
S1133580024013434B80064B984710BD051B0000B7
S1133590020C0040000C0040FFF0FFFFFFBFFFFFE4
S11335A0451B000010B50C7824020443024B9847D5
S11335B0A4B2024B5C8010BD49350000000C0040F1
S11335C010B50400064B9847064B1C70064B5C88EC
S11335D02405240F054B98472000054B984710BD40
S11335E0051B0000020C0040000C0040451B0000BD
S11335F08D34000030B5D378002B35D11378802B6F
S113360029D01B0680246402234354780225AC434A
S113361006D19478002C20D18024A4022343416055
S11336205478013C012C1CD90D042D0CA024E40574
S11336302C431C4384620D0CD02424062C431C43CD
S11336408462D478002C22D15B031CD59378012B9F
S11336501ED0416117E00023D7E7C024E4022343CE
S1133660DDE70D4C2340DFE741600C04240CA0236C
S1133670DB05234383620C0CD0231B0623438362A4
S1133680D378002B03D15378013B012B02D930BDF1
S11336908161F8E78160FAE7FFFFFBFF10B50A00DC
S11336A0C1090023002904D14309DB0105498C46E3
S11336B063441F242040012181401800024B984795
S11336C010BDC04600440041F535000070470000BD
S11336D010B5054B9847054B9847054B9847054B44
S11336E09847054B984710BD193200009D01000012
S11336F0CD360000CD360000CD360000FEE70000D8
S1133700F8B52A4A2A4B9A4211D01A00294B9A42F8
S11337100DD2294A03339B1A9B0801339B000022D4
S1133720234822498C58845004329A42FAD1234ABD
S1133730234B9A420AD2D34321495B1803218B437A
S113374004339B18002102C29342FCD11D4AFF217D
S11337501D4B8B439360FD3990235B001B4AD15072
S11337601B4AD3780325AB4302242343D370D37875
S11337700C27BB4308263343D370164B987B302267
S11337809043202210439873997BB9433143997332
S11337909A7BAA4322439A730F4A536880210B43AE
S11337A053600E4B98470E4B9847FEE72C8300005E
S11337B000000020C400002004000020C4000020F9
S11337C0040D002000ED00E0000000000070004146
S11337D00050004100480041004000414D67000096
S11337E055620000F0B5C64600B50C0090460028AE
S11337F00FD1002A11DD8F18094E0A4D30682100BF
S11338002B6898470134BC42F8D1404604BC90462A
S1133810F0BD01235B429846F7E78046F5E7C046D2
S1133820480A0020400A0020F0B5C64600B50E0044
S113383015000138022810D8002A11D000240C4B9E
S113384098460C4F43461868315D3B6898470028FA
S113385008DB0134A542F5D106E00124644203E00B
S1133860140001E001246442200004BC9046F0BD31
S1133870480A0020440A00200300064A1268002A6D
S113388004D0044A1068C318136070470249014AFF
S11338901160F6E7AC010020082D00200120404211
S11338A0704780239B014B600020704700207047C5
S11338B030B587B0040001AAA0231B0113800023A4
S11338C09370D370FA21C900D180012111710420B1
S11338D0107253729372D37211735173144BD38158
S11338E006231374134D14492800144B98472800D9
S11338F0134B98470120012C01D907B030BD20009B
S1133900104B98470300032806D120000D4B98471D
S113391003000120032BF0D0002B06D120000A4B1A
S11339209847431E98418000E7E70120E5E7C04639
S1133930DE0700004C0A002000140040DD1C0000DB
S1133940991B0000711A0000AD1A000010B5054B58
S11339509847031E04D00320022B00D0023810BD68
S11339600020FCE7711A0000F0B5DE464F464646DB
S1133970C0B584B001900D0014001F00184B984787
S113398006000120002E05D104B01CBC90469946C7
S1133990A346F0BD03A90198124B9847B1463200E3
S11339A07A431219039B0133734304209A42EBD8E0
S11339B0002F11D0730298467B1C9B4601270A4EA8
S11339C02A0021000198B047002807D101374C4450
S11339D045445F45F4D1D7E70020D5E70120D3E77C
S11339E0A51A0000891A0000C51A0000F0B5DE46C9
S11339F04F464646C0B584B001900D0014001F0028
S1133A00184B984706000120002E05D104B01CBCB9
S1133A1090469946A346F0BD03A90198124B9847D6
S1133A20B14632007A431219039B013373430420D5
S1133A309A42EBD8002F11D0730298467B1C9B4608
S1133A4001270A4E2A0021000198B047002807D117
S1133A5001374C4445445F45F4D1D7E70020D5E70E
S1133A600120D3E7A51A0000891A0000E51A000016
S1133A7010B582B0140001290BD0002920D00229EE
S1133A800FD00420032902D101231360002002B0C7
S1133A9010BD01A90E4B9847019B01332360002000
S1133AA0F5E70C4B9847431EDBB2012B04D9031FE7
S1133AB0FB2201201342EAD1002323700020E6E711
S1133AC0054B9847002801D00320E0E70020DEE7FB
S1133AD0891A0000A51A0000711A000000B583B00D
S1133AE069460F480F4B98476B46587940051B7938
S1133AF01B0418436B469B78DB0218436B465B78C8
S1133B005B0118436B461B785B0818436B46DB88E4
S1133B10054A944663445B06184303B000BDC0469F
S1133B204C0A0020651C000044F8FFFF10B5002A71
S1133B3005D00023CC5CC45401339342FAD110BDA8
S1133B40002A05D003008218197001339342FBD177
S1133B507047020002398369023B0020994203D274
S1133B6090784143906A08187047020001000B31B5
S1133B7000204308C001034310781818C0B2013272
S1133B808A42F6D17047000010B5002810D00278A0
S1133B900923002A01D1180010BDC2888A42FAD133
S1133BA04078044B98470323C007C0170340F2E74B
S1133BB00923F0E74D39000070B504000A00010044
S1133BC03031407801231F4DA8470323002801D03A
S1133BD0180070BD1C4BE35C1B021C4AA25C1A4318
S1133BE01B4912B202238A42F2D16733E35C1B06FB
S1133BF06822A25C120413436622A25C1343672268
S1133C00A25C120213431B021B0A124A934216D0EF
S1133C108523E35C1B068422A25C120413438222E4
S1133C20A25C13438322A25C120213431B021B0AED
S1133C30094A94466344581E8341DBB2C8E7002313
S1133C40C6E7C046693900002F0200002E020000BA
S1133C5055AAFFFF46415400BABEABFFF0B5D646A5
S1133C604F464646C0B5150003681C78303C092C05
S1133C700ED85A783A2A01D000240AE002330360AD
S1133C800B20072C05D91CBC90469946A246F0BDD2
S1133C900024A300C54A9E580E60002E00D1E8E01F
S1133CA03378002B0DD07078C14B98470300C207BE
S1133CB007D40020002DE6D05B0700D4DBE00A30F7
S1133CC0E1E700233370E0B27070BA4B9847030009
S1133CD00320DA07D7D4002D02D007305B07D2D4F3
S1133CE000213000B44B984703000024012800D180
S1133CF09AE0032B00D1C0E00D20002BC3D13C334C
S1133D00F25C1202013BF35C1343802292001BB26B
S1133D109342B8D14723F35C1B02BB3AFF3AB55C2C
S1133D201D430DD15723F55C2D06013BF35C1B04A9
S1133D301D435423F35C1D435523F35C1B021D43B5
S1133D40F5614023F25CF270531E0D20012B9AD8CA
S1133D503D23F15CB170002995D04B1E194292D1DC
S1133D604223F35C1B023430305C184380463081BC
S1133D700D2043461B0700D085E74423F35C1B0258
S1133D803630305C03430DD15333F35C1B065220B1
S1133D90305C000403435020305C03435120305C0A
S1133DA0000203433F20305C00023E27F75D0743D7
S1133DB0BA460D20002F00D165E76A43914642467A
S1133DC0170957444F44BB4200D25CE7D81B7B4BD6
S1133DD0984703000D20002B00D154E7784A9A42FB
S1133DE092415242013277498B4248D80233B3613F
S1133DF0E719B762544434620D204146002900D1CA
S1133E0041E74C447462022A2CD15B006E498C4613
S1133E1063445B0A0D209D4200D234E701235B42D8
S1133E2033610023F360B6E0F233FF33F35C0D201B
S1133E30002B00D127E7FA23FF33F45C2406013B6F
S1133E40F35C1B041C43FB235B00F35C1C43F8235F
S1133E50FF33F25C1202144321003000564B9847A2
S1133E60030046E703215943490801200340CB18C6
S1133E70CCE70C2007E7002005E7012003E7023325
S1133E80B361E719B7625246A21832620D20424666
S1133E90002A00D0F7E65F22B25C12065E21715C54
S1133EA009040A435C21715C0A435D21715C0902C7
S1133EB00A4372629B00444A944663445B0A0D20A1
S1133EC09D4200D2DFE601235B4233610023F360AD
S1133ED073716133F35C1B026022B25C1A431219E2
S1133EE072613100303170780123384CA0470322CD
S1133EF0002850D1364BF25C1202364BF35C13436C
S1133F0035491BB203228B4245D13323F35C1B0694
S1133F102F32B25C120413433022B25C13433122B9
S1133F20B25C120213432D4903228B4233D12C4B32
S1133F30F35C1B062B4AB25C1204134385229200E5
S1133F40B25C1343284AB25C12021343274903228A
S1133F508B4220D1264BF35C1B06264AB25C12042A
S1133F60134387229200B25C1343234AB25C1202C9
S1133F701343F360214BF35C1B06214AB25C120429
S1133F80134386229200B25C13431E4AB25C1202AF
S1133F9013433361032232701B4A138801339BB2EB
S1133FA01380F3800020F06230716CE6B0010020D1
S1133FB04D390000B1380000B93B00000D64000029
S1133FC0F50F0000F5FF0000FF0100006939000053
S1133FD02F0200002E02000055AAFFFF5252614139
S1133FE017020000160200001502000072724161FF
S1133FF01F0200001E0200001D0200001B02000040
S11340001A02000019020000D0010020F8B5DE46B3
S113401057464E464546E0B583460D000E00093628
S11340200369002B62D04469237B98462378202BB4
S11340301FD01122914689443100002208274046AE
S1134040384008E0E5230131B3540132494511D029
S1134050A35C202B0ED0052BF4D00028F3D04127ED
S11340607F42BA469A445746192FECD82033DBB224
S1134070E9E73100237A202B20D04A1C2E230B7031
S1134080237A202B5ED02700093704318C46102177
S11340904046014009E0561C137066450FD00137B5
S11340A07B1E1B78202B0AD032000029F3D01E007F
S11340B0413E192EEFD82033DBB2ECE70E00E37A51
S11340C02B72E37F1B06A27F12041343227F134348
S11340D0627F120213432B60627E1202237E13431B
S11340E0AB80E27D1202A37D1343EB800023337087
S11340F0AF69002F2BD0EB69002B28D000245B463E
S11341001B69002B21D05B461A8C174B9A421BD09B
S11341105B46DB699846188800281ED03E00134B86
S113412099460021C847002819D0EB69013BA342F6
S113413017D90134307063004246D05A0136002842
S1134140EFD102E01600BAE7002400233B553CBC43
S113415090469946A246AB46F8BD0024F5E70024F4
S1134160F3E70024F1E7C046FFFF0000055B000011
S1134170F0B5CE4600B582B004000F00C56A8D428A
S11341803FD00379002B07D10023002F2CD1180036
S113419002B004BC9146F0BD30239C46844463467F
S11341A061460193407801232A00174EB04701234A
S11341B00028ECD100232371236AE2699446634406
S11341C09D42E1D2E678012EDED90F4B9946E36990
S11341D09C466544607801232A000199C847013E42
S11341E0F6B2012EF3D1CFE72100303160780133EC
S11341F03A00064DA84701230028C8D1E7620023EE
S1134200C5E70023C3E7C046ED3900006939000063
S1134210F8B505000C00012974D90120AB69994255
S113422071D22B78022B34D0032B49D0012B02D02E
S11342300120404267E04E087618710A2B6A9C46BA
S113424061442800304B9847002802D001204042A6
S113425059E0F305DB0DEB1830331F780136710A92
S11342602B6A9C4661442800274B9847002802D0BB
S11342700120404247E0F605F60DAD1930352878A7
S113428000023843E30701D500093CE00005000DB6
S113429039E0090A2B6A9C46614428001A4B984766
S11342A0002802D0012040422DE06400FF235B007F
S11342B01C402D1930356B781B022878184322E0F6
S11342C0C9092B6A9C46614428000F4B9847002873
S11342D002D00120404216E0A400FE235B001C40F3
S11342E023003033EB18D87800069A781204104370
S11342F02C193034227810435B781B0218430001D8
S1134300000900E00120F8BD71410000F8B5040087
S11343100D00E18081680220012903D023689A6995
S1134320914200D3F8BD002919D11A78032A13D079
S11343300022E2601A890220AA42F3D92A0992B221
S11343405B6A9B182361236830330F2215406D018B
S11343505D1965610020E5E7596A0029E8D09E7877
S11343603601B54213D3AD1BADB2104F00E01D00B2
S11343702068B8470100431C12D0012812D92368D1
S11343809B69984210D2AB1B9BB2B542EFD2E1605D
S11343902068074B98472B099BB218182061D2E775
S11343A00120BFE70220BDE70220BBE71142000065
S11343B0533B0000F0B5C64600B507000C001600DC
S11343C00225012902D98369994203D3280004BC38
S11343D09046F0BD0378022B53D0032B63D0022503
S11343E0012B02D001233B71F0E74B089846884427
S11343F04346590A036A9C4661443B4B9847051E51
S1134400F0D14346DB05DB0DE2071FD5FB18303343
S113441019780F220A403101FF20000101400A43AC
S11344201A704446013401233B71610A3B6A9C467D
S1134430614438002C4B9847002851D1E405E40D21
S11344403609F6B23C1930342670CBE7FB1830330A
S11344501E704446013401233B71610A3B6A9C4649
S113446061443800204B984700283BD1E405E40D13
S11344703B1930331B780F2293433605360F1E4306
S1134480E0E7090A036A9C466144174B9847051EF6
S1134490A8D16300FF2464002340FB1830331E704E
S11344A0360A5E709EE7C909036A9C4661440E4B56
S11344B09847051E96D1A400FE235B001C402200F1
S11344C03032BA18D3783C1930341B091B071E4309
S11344D02670330A5370330C9370360ED67081E70E
S11344E005007FE705007DE771410000F0B5C64691
S11344F000B505008846002907D1C668002E0DD0F6
S113450083699E420BD3012609E0264B9847012874
S11345103DD9AB694646984201D23DE001263400BC
S1134520204F0AE021002800B84700280DD0431C82
S113453032D0012830D0B4422DD00134AB699C4232
S1134540F0D3012E25D90224ECE7174A21002800D4
S1134550164B9847002813D14346002B09D1EC6031
S11345602B695A1C1BD0013B2B6101236B7120006A
S113457012E02200414628000C4B98470028EED058
S113458001384242424150420123184304E00120D1
S113459002E0002000E0002004BC9046F0BD2000B2
S11345A0FAE7C04611420000FFFFFF0FB5430000C9
S11345B0F8B5CE46474680B504000D000220012917
S11345C002D9A369994203D30CBC90469946F8BD1D
S11345D0134F144B98460123994603E03500A36911
S11345E0B342F1D929002000B847061E11D0012892
S11345F011D0431C11D0002229002000C0470028FC
S1134600E2D123695A1CE9D0013323614B4663711B
S1134610E4E70020D8E70220D6E70120D4E7C0462B
S113462011420000B5430000F8B5D646474680B5B0
S113463006000D00C4880134A4B20420002C03D168
S11346400CBC90469A46F8BD3369002BF8D00F276E
S113465027400FD101333361F168002904D1336855
S11346601B89A342ECD905E030688378013B220919
S11346701A4207D0F480336830337F01DF19776141
S11346800020DDE72C4B9847804602204346012B4F
S1134690D6D901334BD033689A6990453FD3023061
S11346A0002DCDD0F1681800244B98478046072090
S11346B04346002BC4D00538012BC1D00138013347
S11346C0BED0002130681E4B984703000120002B08
S11346D0B6D130683030802292000021194B9847BF
S11346E0356841462800184B9847E86200250123A5
S11346F09A4633689A78AA420ED952461A71002112
S113470030680F4B9847002813D13268D36A0133BD
S1134710D3620135EDB2ECE7DA6A521BDA62434642
S1134720F36041463068084B98473061A2E70120A6
S113473086E7012084E7C04611420000ED440000F2
S113474071410000413B0000533B0000F0B5DE46E0
S113475057464E464546E0B583B0050000215A4B06
S11347609847071E00D09EE0FF2399469A46574B70
S11347709B461BE00F2B30D05346002B05D1200065
S1134780534B9847814500D18DE001235B422B8434
S1134790A869C37ADB0700D47DE0FF239A46002191
S11347A028004C4B9847071E00D07CE029692868F4
S11347B0D847071E77D16C692678002E00D180E097
S11347C0E27A3F231340E52E00D177E01207D1D5DA
S11347D00F2B02D0FF239A46E1E7EF69002FDED0CA
S11347E0730618D5637B994640239E43EB882B843C
S11347F0637B0093FF2292464B45D0D12378BF3A86
S11348009343013B5A00D218920092469A440122E3
S1134810002399461DE0B245EAD0FF239A46BEE73D
S11348202D4B984701905346FE2B1FD80123534428
S1134830984653465B00D85B274B98470200019B80
S1134840834213D1C24601239C46E1444B460D2BBF
S113485011D0224B4946C95C63185B781B02605C2B
S11348601843002ADCD11E4B9842ECD0009B994699
S1134870FF239A4693E723785B0606D5002A04D0E3
S113488053465B00DB5B002BF0D1013EF3B29A464A
S1134890009B994683E70023E15CC25C91420AD104
S11348A001330B2BF8D1380003B03CBC9046994639
S11348B0A246AB46F0BDFF239A4670E7FF239A4613
S11348C06DE70427EFE7C0460D4300007141000087
S11348D06B3B0000294600004D5B00006C78000033
S11348E0FFFF0000F0B5DE4657464E464546E0B5AC
S11348F089B004008769C3699A4605AD0C22390062
S11349002800A74B9847EB7ADB0700D470E000231C
S1134910FB72E3610B2205A93800A14B98470123E0
S113492003AD1E00A04649E0013829184A701B094E
S11349309BB2002B07D0210019400A003032392ADB
S1134940F2D90732F0E77E332B5400280AD03B78A3
S1134950202B09D000230133984207D0FA5C202A87
S1134960F9D109E0030007E0002305E0030003E0B8
S1134970FA540133072B05D820220728F8D82A5CDB
S11349800130F5E74046874B984700281CD1013693
S1134990B6B2642E15D00B2205A93800804B984777
S11349A03300052E0AD951465A08DB0313430A88FB
S11349B09B189BB202310A88002AF5D107200F24E4
S11349C0B9E70723984606E044468046642E00D1A2
S11349D0A5E0042807D0404609B03CBC904699465F
S11349E0A246AB46F0BD05ABDB7AFB725346E361EE
S11349F005ABDB7A012293469B0711D553461B88EE
S1134A00002B1BD000205246013080B243009B5A39
S1134A10002BF9D119300D21634B984783B29B4683
S1134A2000212000614B984780460028D3D182465C
S1134A3000255F4F00265F4B99460BE00020E9E715
S1134A406B1C9BB29B456DD01D0001212000C84703
S1134A50002812D121692068B847002800D098E0C6
S1134A6063691B78E52B01D0002B04D1002DE7D11D
S1134A70E3889A46E4E73500E7E78046ABE751462A
S1134A8020004A4B984780460028A4D1A0694A4B8D
S1134A9098470190A8461FE0220067E05E466446FE
S1134AA046498B4203D05200935B002B03D1402331
S1134AB04A461A4391464B460370012322681371F8
S1134AC0002120003B4B9847002866D14546013D14
S1134AD0ABB29846002B27D021692068344B984705
S1134AE0002858D1E669606943466A46D370D37892
S1134AF09946137943730F23C37200230373837698
S1134B00C3764B46013B5A00D2189200D2182C4966
S1134B100D000D350023294FB346A44629E0072391
S1134B20984658E7012BAAD821692068204B98475A
S1134B308046002800D04EE7656920220021280025
S1134B40204B98470B22A1692800154B9847A3696D
S1134B50DA7A182313402B73236801221A713AE777
S1134B600C78FF2606550419FF2666700131A94208
S1134B7094D0BB42F4D0541C52005B46D35A0A78FA
S1134B80835482181E0A5670002B85D122003B00E4
S1134B90ECE780461FE780461DE780461BE7C046DA
S1134BA02D3B00004D470000216500000D4300002F
S1134BB071410000294600006B3B0000FFFF00002C
S1134BC06C780000413B0000F0B5DE4657464E4687
S1134BD04546E0B583B00500FF239946FF2604242B
S1134BE0444F454B98465BE00F2A47D15A061AD5E5
S1134BF0427B914640229343EA882A84427B94462E
S1134C00FF264A4547D1EA69914602783F2422406B
S1134C10013A5400A418A400A2180192FE3E0021F7
S1134C20364A924608E09E42E8D0FF2633E05245D9
S1134C3051D101310D2913D0314A8A5C841864782A
S1134C402402825C2243002EF1D0019CFE2C42D827
S1134C5066004C4632531600019C01340194E8E787
S1134C600278520606D5019AFE2A34D8540000224E
S1134C7049466252013BDEB2E1460CE0002E03D10C
S1134C80204B984781452CD001235B422B8428E09C
S1134C90FF2600E0FF2600212800C047041E1ED185
S1134CA02969002914D02868B847041E17D16869F7
S1134CB00378002B12D0E52BEAD02E2BEAD0C17A50
S1134CC03F220A4009078FD50F2A8FD0FF26E2E73B
S1134CD0002C06D003E0E146FF26DCE70424002391
S1134CE02B61200003B03CBC90469946A246AB46DB
S1134CF0F0BDC0467141000029460000FFFF0000DE
S1134D006C7800006B3B0000F0B5C64600B50400AB
S1134D10C588018C124B994220D02000114B984732
S1134D20002818D1104EE527104B984621692068B9
S1134D30B04700280CD163691F70012322681371E6
S1134D40E388AB4207D200212000C0470028EDD001
S1134D50042800D1023804BC9046F0BD2900DCE7E9
S1134D60FFFF00000D4300007141000029460000D0
S1134D7070B5040000212C4B984700280AD12378F1
S1134D80032B08D0607800220021284B9847431E4B
S1134D909841C0B270BD6379002BF3D00026E6625F
S1134DA0250030358022920000212800204B9847AE
S1134DB05522204BE25455321F4BE254DE3BFF3B5D
S1134DC07A3AA3540132A3540F330132A3540F325D
S1134DD0332162543F3185208000215417482154E7
S1134DE017496254174AA35423690132A354190A78
S1134DF0154AA154190C154AA1541B0E144AA35464
S1134E00E3680132A354190A124AA154190C124A34
S1134E10A1541B0E114AA35460780123626929002E
S1134E200F4DA8476671ADE771410000713A00006B
S1134E30413B00002E0200002F020000150200007A
S1134E401602000017020000190200001A020000F6
S1134E501B0200001D0200001E0200001F020000D1
S1134E60ED390000F0B5DE4657464E464546E0B5FE
S1134E7083B082460D000B782F2B0FD05C2B0DD006
S1134E800023524693602B7857461F2B09D80021E4
S1134E905046B24B984700237B613AE10135EFE776
S1134EA0013528782F28FBD05C28F9D0FB699A4675
S1134EB080B21F2800D83BE12F2800D13BE15C28B9
S1134EC000D13BE16E1C012480235B009846BB4665
S1134ED02B00250034005646994611E0002B35D1AD
S1134EE030806B1C20781F281ED92F2800D128E180
S1134EF05C2800D142E102360134434526D01D002E
S1134F000121974B9847011E20D07F28E8D82228FA
S1134F1000D1FDE02A23934A9FB28F42DED00132B2
S1134F201378002BF8D1DBE72C005F464D46ED18D3
S1134F3004260BE1013C023B002C00D1E8E01A8876
S1134F40202AF7D02E2AF5D0002C01D10620E0E04B
S1134F506300984600235246414653520B222021B7
S1134F60B869814B98475246002301E0013302326D
S1134F7011882029FAD02E29F8D0002B01D0032241
S1134F80164352464244023A12882E2A09D0424617
S1134F90043A5244013C002C03D0023A51882E2991
S1134FA0F8D108220192002293469146A04606E0D9
S1134FB0444500D1E6E003231E43F6B223005C1C03
S1134FC05B005246985A00282CD02028F3D02E2873
S1134FD0EED0019B9B4519D2444500D1D2E07F28F5
S1134FE05ED82B286ED02C23604A99B2814267D0B8
S1134FF001321378002BF8D10300413B9BB2192BEB
S11350006CD802234A461A4391465FE0019B0B2B5E
S11350103BD0444500D1B9E003231E43F6B24445D6
S113502000D8B3E0BB691A78E52A36D0019B082B77
S113503060D00C234A4613400C2B60D0D243920715
S11350405DD0B20706D4032249460A40012A59D04A
S1135050042B5AD0BB69DE723800454B9847BB69B4
S1135060DB7A00285CD15B0753D47A69D37ADB06F8
S11350705CD5517D0902137D0B431B04D17E0902CB
S1135080927E0A431343BB600BE703231E43BB69B1
S11350901A78E52ACDD10B22019205221A70C5E7B0
S11350A000212F4B9847002800D179E0314B9C46D2
S11350B060448038007802231E43002802D090E721
S11350C0002B99D003231E43F6B25F20BB695A46D6
S11350D09854230001229446E34470E70300613BA3
S11350E09BB2192BF2D801234A461A439146203821
S11350F080B2EBE74B469B00DBB2994699E702226C
S113510016439EE70F321643A2E704331E43A1E77A
S1135110062003B03CBC90469946A246AB46F0BD7F
S11351200428F6D15B07F4D40130F2E70520F0E758
S113513001230024FBE60123002405E001230024CD
S113514002E02C005F464D46ED180026002CDFD00F
S1135150094BE3185B005344F1E6C0460D430000DD
S1135160055B0000FD780000413B00000979000068
S11351704D4700007C780000FFFFFF7F2C005F4656
S11351804D46E1E7019B0B2B00D17EE74B469B008C
S1135190DBB2994643460B220192033A93460EE74B
S11351A002231E438EE7C0460B23072801D91800AB
S11351B070478300074A9B58002B01D000221A70C5
S11351C0002901D000230B708000024BC150002342
S11351D0EDE7C046B0010020F0B5C64600B5594C15
S11351E0A544050001911700002303601F26164003
S11351F01E223A4085A901A8534B984782AB8B9352
S113520002AB8C93002806D08A9C1C233B4245D1D8
S113521000283DD10CE0019985A84C4B98478A9C05
S11352200028F2D1002C00D186E01C233B4246D159
S1135230E37A0420DA062BD4BA0702D50330DB075D
S113524026D43B0701D520231E43859BDB6AEB61F3
S11352502C62AE71627D1202237D13431B04E17E36
S11352600902A27E0A4313432B61E37F1B06A27F3C
S113527012041343227F1343627F12021343EB6031
S11352800023AB60AB61859B2B60DB88AB80002087
S11352908E239B009D4404BC9046F0BD042805D099
S11352A008231E438A9C0028D3D0F1E785A8284B05
S11352B0984708231E438A9C002808D0E8E7E37A2D
S11352C0112207201A42E3D101307B07E0D43307CF
S11352D0BBD5204B9847A073030AE373030C2374D4
S11352E0000E60740023E37223776377A377E37778
S11352F0627D1202277D17433F04E17E0902A27EEC
S11353000A431743A376E3762375637585980133BF
S11353100371002F97D0C36A984639000E4B984703
S11353200028B5D18598013FC76041460B4B98478B
S1135330002800D187E7ABE71C2306203B42B2D00C
S11353400620ADE7C8FDFFFF5D3C0000654E000090
S1135350E5480000DD3A0000B1450000714100005D
S1135360F0B5DE4657464E464546E0B583B00400E8
S11353700F001500994600234A461360818800688F
S11353805E4B98470090002800D0AFE0A3795AB252
S1135390002A00DAA8E0DB0702D407230093A5E083
S11353A0E368A2689E1AAE4200D92E00002E53D1A3
S11353B09CE06169524B98475CE0A27980235B4290
S11353C01343A3710223009390E0A27980235B42EC
S11353D01343A3710123009388E0A27980235B42E5
S11353E01343A3710223009380E0A27980235B42DC
S11353F01343A3710123009378E03031400238183D
S1135400802292003F4B984763E04346A361A36820
S1135410DD05ED0D80239B005D1BB54200D93500F1
S1135420A1692068384B9847002855D1A368D9054D
S1135430C90D303123689C4661442A003800314B41
S113544098477F19A3685B19A3604B461B685B19D7
S11354504A461360761B49D0A368DA05D7D1206881
S11354608278013A5D0A1540EDB2002D07D1002B78
S11354709FD120690128A0D9431CA6D0606123686C
S11354809A4661691800214B98470028A5D08046A8
S1135490A844730A9B46B8D053469B785A46AA1828
S11354A09A4201D95B1B9B465B466A46D371D3790A
S11354B05246507842463900154DA847002894D1E9
S11354C021680B79002B04D0CB6A4246981A834595
S11354D093D85B465D02B4E7A27980235B42134311
S11354E0A3710123009301E002230093009803B009
S11354F03CBC90469946A246AB46F0BD893B0000B1
S1135500114200002D3B000071410000533B00009C
S113551069390000F0B5DE4657464E464546E0B5CB
S113552083B004000D001600994600234A46136018
S1135530818800687F4B98470090002800D0F1E0F4
S1135540A3795AB2002A00DAEAE09B0702D40723BF
S11355500093E7E0E3689A19934210D8002E0ED026
S11355602F007BE00021744B98470300206103E087
S11355706169714B98470300002B00D080E0A36859
S1135580E268934200D9E360A37920221343A37114
S1135590C8E0A279813B1343A37102230093C1E0C5
S11355A0A2797F3B1343A37101230093BAE0002146
S11355B0624B984700286DD0A27980235B42134345
S11355C0A37101230093ADE0A27980235B421343CE
S11355D0A37102230093A5E0A27980235B421343C5
S11355E0A371012300939DE0400239183033180061
S11355F080229200524B984700232268137172E074
S1135600A368E268934271D24346A361A368DD05AF
S1135610ED0D80239B005D1BB54200D93500A169C7
S11356202068464B9847002872D1A368D805C00D5E
S1135630303023689C4660442A003900404B984728
S11356400123226813717F19A3685B19A3604B4679
S11356501B685B194A461360761B90D0A368DA0571
S1135660D4D120688278013A5D0A1540EDB2002D4C
S11356700BD1002B00D07BE72369002B00D171E70D
S1135680012B86D05A1C8BD063612068C36AA2693F
S113569093428CD023689A4661691800294B984735
S11356A0002891D08046A844730A9B46A8D053464C
S11356B09B785A46AA189A4201D95B1B9B465B46C3
S11356C06A46D371D37952465078424639001E4D0A
S11356D0A847002800D07FE72368DA6A4146501AB9
S11356E0834500D980E75B465D02ACE70021504664
S11356F0124B9847002803D123684246DA6283E7B5
S1135700A27980235B421343A3710123009309E030
S1135710A27980235B421343A3710123009301E028
S113572002230093009803B03CBC90469946A246DD
S1135730AB46F0BD893B0000ED4400007141000020
S11357402D3B0000533B0000ED39000070B5040010
S1135750818800681C4B9847002802D1A3799B06D6
S113576000D470BDE1692068184B98470028F8D12F
S1135770256AEB7A20221343EB72237B2B77A389D0
S11357801B0A6B77E389AB77E37BEB77237CAB7600
S1135790238A1B0AEB76638A2B75638A1B0A6B7553
S11357A00B4B9847A875030AEB75030C2B76000E78
S11357B06876A37920229343A3710123226813718D
S11357C02068044B9847CCE7893B000071410000F6
S11357D0DD3A0000714D000010B50400034B9847FA
S11357E0002801D10023236010BDC0464D5700009E
S11357F0F8B5DE4657464E464546E0B504000E0071
S113580081880068574B9847051E00D0A2E0A37911
S11358105AB2002A00DA9CE0E268B24202D29B0744
S113582000D41600A0680023A360002E00D191E0EC
S1135830236899469F787F02002813D0431E984618
S1135840701E494B9A4639009847834639004046B2
S1135850D047834506D3784243460340A360F61AF3
S1135860606903E0206900280BD06061002860D0E3
S1135870BE423AD9022398463C4B9A463C4B994641
S113588029E000214846394B9847012803D0431C9E
S113589008D02061E9E7A27980235B421343A37116
S11358A0022557E0A27980235B421343A3710125AB
S11358B050E001002068C847431C28D001282DD996
S11358C023689B69984229D26061A368DB19A360AD
S11358D0F61BB74209D2A37942461A42E9D0010025
S11358E02068D0470028E7D13E00A3689B19A36035
S11358F0F3051DD0010020681E4B9847002814D1E1
S1135900A27980235B421343A371022522E0A2798A
S113591080235B421343A37101251BE0A2798023FA
S11359205B421343A371022514E0760A301800E0A9
S11359300020A368DA0503D0A269904200D0A061D8
S1135940E268934206D9E360A37920221343A3714A
S113595000E0022528003CBC90469946A246AB468E
S1135960F8BDC046893B00000D640000ED44000012
S113597011420000533B000030B5124CA544019085
S11359800D00002285A901A80F4B9847041E04D0DE
S113599020008F239B009D4430BD82AB8B9302ABD0
S11359A08C93019985A8094B9847041EF0D18A9BD2
S11359B0002B04D0290085A8054B9847E8E7062466
S11359C0E6E7C046C4FDFFFF5D3C0000654E0000F5
S11359D00D40000010B52C4CA544019001228FA964
S11359E001A82A4B9847002803D098239B009D4484
S11359F010BD83AB959303AB969301998FA8244B69
S1135A0098470028F1D1949B002B39D0DA7A0730DB
S1135A10D207EAD45A7D12021C7D14432404D97E91
S1135A2009029A7E0A431443DB7ADB060AD48FA860
S1135A30184B98470028D8D1002C1AD18F98164BB0
S1135A409847D2E70220012CCFD924228FA986A817
S1135A50124B98478894022186A8114B9847002836
S1135A60C3D186A80F4B984700280BD00428DED05A
S1135A70BBE721008F980C4B98470028B5D1DDE790
S1135A800620B2E70720B0E7A0FDFFFF5D3C000061
S1135A90654E0000094D0000714D00002D3B0000D3
S1135AA00D430000C94B0000B145000010B582B0A1
S1135AB00C006B46187001AB012269462000054CAE
S1135AC0A047019B581E431E98414042012318439E
S1135AD002B010BD15550000F8B506000D000078A1
S1135AE000280BD00024064F2900B847431C04D0DB
S1135AF00134305D0028F7D12000F8BD0020FCE718
S1135B00AD5A000003007F2811D9002911D1C728FC
S1135B1017D00D4A023201231188814204D0013387
S1135B209BB20232802BF7D18033FF200340180050
S1135B3070470023FF28FAD880384000024BC35A2C
S1135B40F5E70023F0E7C04610790000612814D07F
S1135B500B4B043301216222904207D001310233FE
S1135B609A1E1288002AF7D1030004E0031E02D013
S1135B704900044BCB5A180070470021F8E7C0468F
S1135B80107A0000F07B000080B500AF90235B0228
S1135B901A6882F30888034A9360034B1B6898478A
S1135BA0BD4680BD00ED00E00420010030B5C3B067
S1135BB0002302A9802252005B5401339342FBD19B
S1135BC04A4B9847002800D08AE04948494CA047EE
S1135BD04948A047494C8C22920000212000484BA0
S1135BE0984721000020474B9847474B18700B28D3
S1135BF01BD046483F4CA0474548A0474549302361
S1135C000B700A224448454B98473F4B18700028B4
S1135C1012D0020042490020424B984700244248D7
S1135C20344B9847200043B030BD0B223C49002040
S1135C303C4B98470024F2E734482E4CA0473B489D
S1135C40A04735493A483B4B9847002808D1324889
S1135C50394B984739490020324B98470024DEE7F6
S1135C602A48244DA8472C4C2000334B98473448ED
S1135C70A847344930230B700A222000274B984749
S1135C80214B187000280AD02F481A4B98471E4BF6
S1135C901A7823490020234B98470024BFE72B4858
S1135CA0144B98470023019301AB8022520002A9B0
S1135CB01948274CA047002808D017481E4B98477E
S1135CC01E490020174B98470024A8E70F48094CA9
S1135CD0A0471148184B98471948A04701249EE74C
S1135CE01C48044B984700249CE7C046B1050000BB
